{
  "contractName": "ZombieFeeding",
  "abi": [
    {
      "anonymous": false,
      "inputs": [
        {
          "indexed": false,
          "internalType": "uint256",
          "name": "zombieId",
          "type": "uint256"
        },
        {
          "indexed": false,
          "internalType": "string",
          "name": "name",
          "type": "string"
        },
        {
          "indexed": false,
          "internalType": "uint256",
          "name": "dna",
          "type": "uint256"
        }
      ],
      "name": "NewZombie",
      "type": "event"
    },
    {
      "anonymous": false,
      "inputs": [
        {
          "indexed": true,
          "internalType": "address",
          "name": "previousOwner",
          "type": "address"
        },
        {
          "indexed": true,
          "internalType": "address",
          "name": "newOwner",
          "type": "address"
        }
      ],
      "name": "OwnershipTransferred",
      "type": "event"
    },
    {
      "inputs": [
        {
          "internalType": "string",
          "name": "_name",
          "type": "string"
        }
      ],
      "name": "createRandomZombie",
      "outputs": [],
      "stateMutability": "nonpayable",
      "type": "function"
    },
    {
      "inputs": [],
      "name": "owner",
      "outputs": [
        {
          "internalType": "address",
          "name": "",
          "type": "address"
        }
      ],
      "stateMutability": "view",
      "type": "function",
      "constant": true
    },
    {
      "inputs": [],
      "name": "renounceOwnership",
      "outputs": [],
      "stateMutability": "nonpayable",
      "type": "function"
    },
    {
      "inputs": [
        {
          "internalType": "address",
          "name": "newOwner",
          "type": "address"
        }
      ],
      "name": "transferOwnership",
      "outputs": [],
      "stateMutability": "nonpayable",
      "type": "function"
    },
    {
      "inputs": [
        {
          "internalType": "uint256",
          "name": "",
          "type": "uint256"
        }
      ],
      "name": "zombieToOwner",
      "outputs": [
        {
          "internalType": "address",
          "name": "",
          "type": "address"
        }
      ],
      "stateMutability": "view",
      "type": "function",
      "constant": true
    },
    {
      "inputs": [
        {
          "internalType": "uint256",
          "name": "",
          "type": "uint256"
        }
      ],
      "name": "zombies",
      "outputs": [
        {
          "internalType": "string",
          "name": "name",
          "type": "string"
        },
        {
          "internalType": "uint256",
          "name": "dna",
          "type": "uint256"
        },
        {
          "internalType": "uint32",
          "name": "level",
          "type": "uint32"
        },
        {
          "internalType": "uint32",
          "name": "readyTime",
          "type": "uint32"
        },
        {
          "internalType": "uint16",
          "name": "winCount",
          "type": "uint16"
        },
        {
          "internalType": "uint16",
          "name": "lossCount",
          "type": "uint16"
        }
      ],
      "stateMutability": "view",
      "type": "function",
      "constant": true
    },
    {
      "inputs": [
        {
          "internalType": "address",
          "name": "_address",
          "type": "address"
        }
      ],
      "name": "setKittyContractAddress",
      "outputs": [],
      "stateMutability": "nonpayable",
      "type": "function"
    },
    {
      "inputs": [
        {
          "internalType": "uint256",
          "name": "_zombieId",
          "type": "uint256"
        },
        {
          "internalType": "uint256",
          "name": "_kittyId",
          "type": "uint256"
        }
      ],
      "name": "feedOnKitty",
      "outputs": [],
      "stateMutability": "nonpayable",
      "type": "function"
    }
  ],
  "bytecode": "0x60806040526010600155600154600a6200001a91906200017f565b600255620151806003553480156200003157600080fd5b5062000052620000466200005860201b60201c565b6200006060201b60201c565b62000302565b600033905090565b60008060009054906101000a900473ffffffffffffffffffffffffffffffffffffffff169050816000806101000a81548173ffffffffffffffffffffffffffffffffffffffff021916908373ffffffffffffffffffffffffffffffffffffffff1602179055508173ffffffffffffffffffffffffffffffffffffffff168173ffffffffffffffffffffffffffffffffffffffff167f8be0079c531659141344cd1fd0a4f28419497f9722a3daafe3b4186f6b6457e060405160405180910390a35050565b6000808291508390505b600185111562000176578086048111156200014e576200014d620002c6565b5b60018516156200015e5780820291505b80810290506200016e85620002f5565b94506200012e565b94509492505050565b60006200018c82620002bc565b91506200019983620002bc565b9250620001c87fffffffffffffffffffffffffffffffffffffffffffffffffffffffffffffffff8484620001d0565b905092915050565b600082620001e25760019050620002b5565b81620001f25760009050620002b5565b81600181146200020b576002811462000216576200024c565b6001915050620002b5565b60ff8411156200022b576200022a620002c6565b5b8360020a915084821115620002455762000244620002c6565b5b50620002b5565b5060208310610133831016604e8410600b8410161715620002865782820a90508381111562000280576200027f620002c6565b5b620002b5565b62000295848484600162000124565b92509050818404811115620002af57620002ae620002c6565b5b81810290505b9392505050565b6000819050919050565b7f4e487b7100000000000000000000000000000000000000000000000000000000600052601160045260246000fd5b60008160011c9050919050565b61158880620003126000396000f3fe608060405234801561001057600080fd5b50600436106100885760003560e01c8063715018a61161005b578063715018a61461012a5780637bff0a01146101345780638da5cb5b14610150578063f2fde38b1461016e57610088565b806317a7f4cc1461008d5780632052465e146100a9578063528b7b8f146100de5780635f4623f11461010e575b600080fd5b6100a760048036038101906100a29190610ebc565b61018a565b005b6100c360048036038101906100be9190610e8f565b6102b7565b6040516100d596959493929190610fd2565b60405180910390f35b6100f860048036038101906100f39190610e8f565b6103c7565b6040516101059190610fb7565b60405180910390f35b61012860048036038101906101239190610d3a565b6103fa565b005b6101326104ba565b005b61014e60048036038101906101499190610e46565b610542565b005b6101586105c3565b6040516101659190610fb7565b60405180910390f35b61018860048036038101906101839190610d3a565b6105ec565b005b6000600760009054906101000a900473ffffffffffffffffffffffffffffffffffffffff1673ffffffffffffffffffffffffffffffffffffffff1663e98b7f4d836040518263ffffffff1660e01b81526004016101e7919061107a565b6101406040518083038186803b15801561020057600080fd5b505afa158015610214573d6000803e3d6000fd5b505050506040513d601f19601f820116820180604052508101906102389190610d67565b909192939495969798509091929394959697509091929394959650909192939495509091929394509091929350909192509091509050809150506102b283826040518060400160405280600581526020017f6b697474790000000000000000000000000000000000000000000000000000008152506106e4565b505050565b600481815481106102c757600080fd5b90600052602060002090600302016000915090508060000180546102ea906112a8565b80601f0160208091040260200160405190810160405280929190818152602001828054610316906112a8565b80156103635780601f1061033857610100808354040283529160200191610363565b820191906000526020600020905b81548152906001019060200180831161034657829003601f168201915b5050505050908060010154908060020160009054906101000a900463ffffffff16908060020160049054906101000a900463ffffffff16908060020160089054906101000a900461ffff169080600201600a9054906101000a900461ffff16905086565b60056020528060005260406000206000915054906101000a900473ffffffffffffffffffffffffffffffffffffffff1681565b61040261085e565b73ffffffffffffffffffffffffffffffffffffffff166104206105c3565b73ffffffffffffffffffffffffffffffffffffffff1614610476576040517f08c379a000000000000000000000000000000000000000000000000000000000815260040161046d9061105a565b60405180910390fd5b80600760006101000a81548173ffffffffffffffffffffffffffffffffffffffff021916908373ffffffffffffffffffffffffffffffffffffffff16021790555050565b6104c261085e565b73ffffffffffffffffffffffffffffffffffffffff166104e06105c3565b73ffffffffffffffffffffffffffffffffffffffff1614610536576040517f08c379a000000000000000000000000000000000000000000000000000000000815260040161052d9061105a565b60405180910390fd5b6105406000610866565b565b6000600660003373ffffffffffffffffffffffffffffffffffffffff1673ffffffffffffffffffffffffffffffffffffffff168152602001908152602001600020541461058e57600080fd5b60006105998261092a565b90506064816105a89190611354565b816105b391906111cc565b90506105bf8282610950565b5050565b60008060009054906101000a900473ffffffffffffffffffffffffffffffffffffffff16905090565b6105f461085e565b73ffffffffffffffffffffffffffffffffffffffff166106126105c3565b73ffffffffffffffffffffffffffffffffffffffff1614610668576040517f08c379a000000000000000000000000000000000000000000000000000000000815260040161065f9061105a565b60405180910390fd5b600073ffffffffffffffffffffffffffffffffffffffff168173ffffffffffffffffffffffffffffffffffffffff1614156106d8576040517f08c379a00000000000000000000000000000000000000000000000000000000081526004016106cf9061103a565b60405180910390fd5b6106e181610866565b50565b826005600082815260200190815260200160002060009054906101000a900473ffffffffffffffffffffffffffffffffffffffff1673ffffffffffffffffffffffffffffffffffffffff163373ffffffffffffffffffffffffffffffffffffffff161461075057600080fd5b60006004858154811061076657610765611412565b5b9060005260206000209060030201905061077f81610b79565b61078857600080fd5b600254846107969190611354565b9350600060028583600101546107ac9190611145565b6107b6919061119b565b90507f8d53323b21b9f304546f6d3e61cde865451064d614aa4912f395b755a9d8cad98480519060200120141561080e5760636064826107f69190611354565b8261080191906111cc565b61080b9190611145565b90505b61084d6040518060400160405280600681526020017f4e6f4e616d65000000000000000000000000000000000000000000000000000081525082610950565b61085682610ba0565b505050505050565b600033905090565b60008060009054906101000a900473ffffffffffffffffffffffffffffffffffffffff169050816000806101000a81548173ffffffffffffffffffffffffffffffffffffffff021916908373ffffffffffffffffffffffffffffffffffffffff1602179055508173ffffffffffffffffffffffffffffffffffffffff168173ffffffffffffffffffffffffffffffffffffffff167f8be0079c531659141344cd1fd0a4f28419497f9722a3daafe3b4186f6b6457e060405160405180910390a35050565b600080828051906020012060001c9050600254816109489190611354565b915050919050565b60046040518060c00160405280848152602001838152602001600163ffffffff168152602001600354426109849190611145565b63ffffffff168152602001600061ffff168152602001600061ffff16815250908060018154018082558091505060019003906000526020600020906003020160009091909190915060008201518160000190805190602001906109e8929190610bd3565b506020820151816001015560408201518160020160006101000a81548163ffffffff021916908363ffffffff16021790555060608201518160020160046101000a81548163ffffffff021916908363ffffffff16021790555060808201518160020160086101000a81548161ffff021916908361ffff16021790555060a082015181600201600a6101000a81548161ffff021916908361ffff16021790555050503360056000600480549050815260200190815260200160002060006101000a81548173ffffffffffffffffffffffffffffffffffffffff021916908373ffffffffffffffffffffffffffffffffffffffff160217905550600660003373ffffffffffffffffffffffffffffffffffffffff1673ffffffffffffffffffffffffffffffffffffffff1681526020019081526020016000206000815480929190610b309061130b565b91905055507f88f026aacbbecc90c18411df4b1185fd8d9be2470f1962f192bf84a27d0704b76004805490508383604051610b6d93929190611095565b60405180910390a15050565b6000428260020160049054906101000a900463ffffffff1663ffffffff1611159050919050565b60035442610bae9190611145565b8160020160046101000a81548163ffffffff021916908363ffffffff16021790555050565b828054610bdf906112a8565b90600052602060002090601f016020900481019282610c015760008555610c48565b82601f10610c1a57805160ff1916838001178555610c48565b82800160010185558215610c48579182015b82811115610c47578251825591602001919060010190610c2c565b5b509050610c559190610c59565b5090565b5b80821115610c72576000816000905550600101610c5a565b5090565b6000610c89610c84846110f8565b6110d3565b905082815260208101848484011115610ca557610ca4611475565b5b610cb0848285611266565b509392505050565b600081359050610cc78161150d565b92915050565b600081519050610cdc81611524565b92915050565b600082601f830112610cf757610cf6611470565b5b8135610d07848260208601610c76565b91505092915050565b600081359050610d1f8161153b565b92915050565b600081519050610d348161153b565b92915050565b600060208284031215610d5057610d4f61147f565b5b6000610d5e84828501610cb8565b91505092915050565b6000806000806000806000806000806101408b8d031215610d8b57610d8a61147f565b5b6000610d998d828e01610ccd565b9a50506020610daa8d828e01610ccd565b9950506040610dbb8d828e01610d25565b9850506060610dcc8d828e01610d25565b9750506080610ddd8d828e01610d25565b96505060a0610dee8d828e01610d25565b95505060c0610dff8d828e01610d25565b94505060e0610e108d828e01610d25565b935050610100610e228d828e01610d25565b925050610120610e348d828e01610d25565b9150509295989b9194979a5092959850565b600060208284031215610e5c57610e5b61147f565b5b600082013567ffffffffffffffff811115610e7a57610e7961147a565b5b610e8684828501610ce2565b91505092915050565b600060208284031215610ea557610ea461147f565b5b6000610eb384828501610d10565b91505092915050565b60008060408385031215610ed357610ed261147f565b5b6000610ee185828601610d10565b9250506020610ef285828601610d10565b9150509250929050565b610f0581611200565b82525050565b6000610f1682611129565b610f208185611134565b9350610f30818560208601611275565b610f3981611484565b840191505092915050565b6000610f51602683611134565b9150610f5c82611495565b604082019050919050565b6000610f74602083611134565b9150610f7f826114e4565b602082019050919050565b610f938161121e565b82525050565b610fa28161124c565b82525050565b610fb181611256565b82525050565b6000602082019050610fcc6000830184610efc565b92915050565b600060c0820190508181036000830152610fec8189610f0b565b9050610ffb6020830188610f99565b6110086040830187610fa8565b6110156060830186610fa8565b6110226080830185610f8a565b61102f60a0830184610f8a565b979650505050505050565b6000602082019050818103600083015261105381610f44565b9050919050565b6000602082019050818103600083015261107381610f67565b9050919050565b600060208201905061108f6000830184610f99565b92915050565b60006060820190506110aa6000830186610f99565b81810360208301526110bc8185610f0b565b90506110cb6040830184610f99565b949350505050565b60006110dd6110ee565b90506110e982826112da565b919050565b6000604051905090565b600067ffffffffffffffff82111561111357611112611441565b5b61111c82611484565b9050602081019050919050565b600081519050919050565b600082825260208201905092915050565b60006111508261124c565b915061115b8361124c565b9250827fffffffffffffffffffffffffffffffffffffffffffffffffffffffffffffffff038211156111905761118f611385565b5b828201905092915050565b60006111a68261124c565b91506111b18361124c565b9250826111c1576111c06113b4565b5b828204905092915050565b60006111d78261124c565b91506111e28361124c565b9250828210156111f5576111f4611385565b5b828203905092915050565b600061120b8261122c565b9050919050565b60008115159050919050565b600061ffff82169050919050565b600073ffffffffffffffffffffffffffffffffffffffff82169050919050565b6000819050919050565b600063ffffffff82169050919050565b82818337600083830152505050565b60005b83811015611293578082015181840152602081019050611278565b838111156112a2576000848401525b50505050565b600060028204905060018216806112c057607f821691505b602082108114156112d4576112d36113e3565b5b50919050565b6112e382611484565b810181811067ffffffffffffffff8211171561130257611301611441565b5b80604052505050565b60006113168261124c565b91507fffffffffffffffffffffffffffffffffffffffffffffffffffffffffffffffff82141561134957611348611385565b5b600182019050919050565b600061135f8261124c565b915061136a8361124c565b92508261137a576113796113b4565b5b828206905092915050565b7f4e487b7100000000000000000000000000000000000000000000000000000000600052601160045260246000fd5b7f4e487b7100000000000000000000000000000000000000000000000000000000600052601260045260246000fd5b7f4e487b7100000000000000000000000000000000000000000000000000000000600052602260045260246000fd5b7f4e487b7100000000000000000000000000000000000000000000000000000000600052603260045260246000fd5b7f4e487b7100000000000000000000000000000000000000000000000000000000600052604160045260246000fd5b600080fd5b600080fd5b600080fd5b600080fd5b6000601f19601f8301169050919050565b7f4f776e61626c653a206e6577206f776e657220697320746865207a65726f206160008201527f6464726573730000000000000000000000000000000000000000000000000000602082015250565b7f4f776e61626c653a2063616c6c6572206973206e6f7420746865206f776e6572600082015250565b61151681611200565b811461152157600080fd5b50565b61152d81611212565b811461153857600080fd5b50565b6115448161124c565b811461154f57600080fd5b5056fea2646970667358221220977e85fe5063d50417ff774ea84753ea5e2e25ad5032d4cd849a84f73ae3130b64736f6c63430008050033",
  "immutableReferences": {},
  "source": "// SPDX-License-Identifier: MIT\r\npragma solidity >=0.6.19 <0.8.6;\r\nimport \"./ZombieFactory.sol\";\r\nabstract contract KittyInterface {\r\n function getKitty(uint256 _id) external view virtual returns (\r\n    bool isGestating,\r\n    bool isReady,\r\n    uint256 cooldownIndex,\r\n    uint256 nextActionAt,\r\n    uint256 siringWithId,\r\n    uint256 birthTime,\r\n    uint256 matronId,\r\n    uint256 sireId,\r\n    uint256 generation,\r\n    uint256 genes\r\n  );\r\n\r\n}\r\ncontract ZombieFeeding is ZombieFactory {\r\n  KittyInterface kittyContract;\r\n  modifier onlyOwnerOf(uint _zombieId) {\r\n    require(msg.sender == zombieToOwner[_zombieId]);\r\n    _;\r\n  }\r\n  function setKittyContractAddress(address _address) external onlyOwner {\r\n    kittyContract = KittyInterface(_address);\r\n  }\r\n  function _triggerCooldown(Zombie storage _zombie) internal {\r\n    _zombie.readyTime = uint32(block.timestamp + cooldownTime);\r\n  }\r\n  function _isReady(Zombie storage _zombie) internal view returns (bool) {\r\n      return (_zombie.readyTime <= block.timestamp);\r\n  }\r\n  function feedAndMultiply(uint _zombieId, uint _targetDna, string memory _species) internal onlyOwnerOf(_zombieId) {\r\n    Zombie storage myZombie = zombies[_zombieId];\r\n    require(_isReady(myZombie));\r\n    _targetDna = _targetDna % dnaModulus;\r\n    uint newDna = (myZombie.dna + _targetDna) / 2;\r\n    if (keccak256(bytes(_species)) == keccak256(\"kitty\")) {\r\n      newDna = newDna - newDna % 100 + 99;\r\n    }\r\n    _createZombie(\"NoName\", newDna);\r\n    _triggerCooldown(myZombie);\r\n  }\r\n  function feedOnKitty(uint _zombieId, uint _kittyId) public {\r\n    uint kittyDna;\r\n    (,,,,,,,,,kittyDna) = kittyContract.getKitty(_kittyId);\r\n    feedAndMultiply(_zombieId, kittyDna, \"kitty\");\r\n  }\r\n}\r\n\r\n",
  "sourcePath": "C:\\code\\cryptodapp\\contracts\\ZombieFeeding.sol",
  "compiler": {
    "name": "solc",
    "version": "0.8.5+commit.a4f2e591.Emscripten.clang"
  },
  "schemaVersion": "3.4.1",
  "updatedAt": "2021-07-02T16:55:21.533Z",
  "networkType": "ethereum",
  "devdoc": {
    "kind": "dev",
    "methods": {
      "owner()": {
        "details": "Returns the address of the current owner."
      },
      "renounceOwnership()": {
        "details": "Leaves the contract without owner. It will not be possible to call `onlyOwner` functions anymore. Can only be called by the current owner. NOTE: Renouncing ownership will leave the contract without an owner, thereby removing any functionality that is only available to the owner."
      },
      "transferOwnership(address)": {
        "details": "Transfers ownership of the contract to a new account (`newOwner`). Can only be called by the current owner."
      }
    },
    "version": 1
  },
  "userdoc": {
    "kind": "user",
    "methods": {},
    "version": 1
  }
}