{
  "contractName": "ZombieAttack",
  "abi": [
    {
      "anonymous": false,
      "inputs": [
        {
          "indexed": false,
          "internalType": "uint256",
          "name": "zombieId",
          "type": "uint256"
        },
        {
          "indexed": false,
          "internalType": "string",
          "name": "name",
          "type": "string"
        },
        {
          "indexed": false,
          "internalType": "uint256",
          "name": "dna",
          "type": "uint256"
        }
      ],
      "name": "NewZombie",
      "type": "event"
    },
    {
      "anonymous": false,
      "inputs": [
        {
          "indexed": true,
          "internalType": "address",
          "name": "previousOwner",
          "type": "address"
        },
        {
          "indexed": true,
          "internalType": "address",
          "name": "newOwner",
          "type": "address"
        }
      ],
      "name": "OwnershipTransferred",
      "type": "event"
    },
    {
      "inputs": [
        {
          "internalType": "uint256",
          "name": "_zombieId",
          "type": "uint256"
        },
        {
          "internalType": "uint256",
          "name": "_newDna",
          "type": "uint256"
        }
      ],
      "name": "changeDna",
      "outputs": [],
      "stateMutability": "nonpayable",
      "type": "function"
    },
    {
      "inputs": [
        {
          "internalType": "uint256",
          "name": "_zombieId",
          "type": "uint256"
        },
        {
          "internalType": "string",
          "name": "_newName",
          "type": "string"
        }
      ],
      "name": "changeName",
      "outputs": [],
      "stateMutability": "nonpayable",
      "type": "function"
    },
    {
      "inputs": [
        {
          "internalType": "string",
          "name": "_name",
          "type": "string"
        }
      ],
      "name": "createRandomZombie",
      "outputs": [],
      "stateMutability": "nonpayable",
      "type": "function"
    },
    {
      "inputs": [
        {
          "internalType": "uint256",
          "name": "_zombieId",
          "type": "uint256"
        },
        {
          "internalType": "uint256",
          "name": "_kittyId",
          "type": "uint256"
        }
      ],
      "name": "feedOnKitty",
      "outputs": [],
      "stateMutability": "nonpayable",
      "type": "function"
    },
    {
      "inputs": [
        {
          "internalType": "address",
          "name": "_owner",
          "type": "address"
        }
      ],
      "name": "getZombiesByOwner",
      "outputs": [
        {
          "internalType": "uint256[]",
          "name": "",
          "type": "uint256[]"
        }
      ],
      "stateMutability": "view",
      "type": "function",
      "constant": true
    },
    {
      "inputs": [
        {
          "internalType": "uint256",
          "name": "_zombieId",
          "type": "uint256"
        }
      ],
      "name": "levelUp",
      "outputs": [],
      "stateMutability": "payable",
      "type": "function",
      "payable": true
    },
    {
      "inputs": [],
      "name": "owner",
      "outputs": [
        {
          "internalType": "address",
          "name": "",
          "type": "address"
        }
      ],
      "stateMutability": "view",
      "type": "function",
      "constant": true
    },
    {
      "inputs": [],
      "name": "renounceOwnership",
      "outputs": [],
      "stateMutability": "nonpayable",
      "type": "function"
    },
    {
      "inputs": [
        {
          "internalType": "address",
          "name": "_address",
          "type": "address"
        }
      ],
      "name": "setKittyContractAddress",
      "outputs": [],
      "stateMutability": "nonpayable",
      "type": "function"
    },
    {
      "inputs": [
        {
          "internalType": "uint256",
          "name": "_fee",
          "type": "uint256"
        }
      ],
      "name": "setLevelUpFee",
      "outputs": [],
      "stateMutability": "nonpayable",
      "type": "function"
    },
    {
      "inputs": [
        {
          "internalType": "address",
          "name": "newOwner",
          "type": "address"
        }
      ],
      "name": "transferOwnership",
      "outputs": [],
      "stateMutability": "nonpayable",
      "type": "function"
    },
    {
      "inputs": [
        {
          "internalType": "uint256",
          "name": "",
          "type": "uint256"
        }
      ],
      "name": "zombieToOwner",
      "outputs": [
        {
          "internalType": "address",
          "name": "",
          "type": "address"
        }
      ],
      "stateMutability": "view",
      "type": "function",
      "constant": true
    },
    {
      "inputs": [
        {
          "internalType": "uint256",
          "name": "",
          "type": "uint256"
        }
      ],
      "name": "zombies",
      "outputs": [
        {
          "internalType": "string",
          "name": "name",
          "type": "string"
        },
        {
          "internalType": "uint256",
          "name": "dna",
          "type": "uint256"
        },
        {
          "internalType": "uint32",
          "name": "level",
          "type": "uint32"
        },
        {
          "internalType": "uint32",
          "name": "readyTime",
          "type": "uint32"
        },
        {
          "internalType": "uint16",
          "name": "winCount",
          "type": "uint16"
        },
        {
          "internalType": "uint16",
          "name": "lossCount",
          "type": "uint16"
        }
      ],
      "stateMutability": "view",
      "type": "function",
      "constant": true
    },
    {
      "inputs": [
        {
          "internalType": "uint256",
          "name": "_zombieId",
          "type": "uint256"
        },
        {
          "internalType": "uint256",
          "name": "_targetId",
          "type": "uint256"
        }
      ],
      "name": "attack",
      "outputs": [],
      "stateMutability": "nonpayable",
      "type": "function"
    }
  ],
  "bytecode": "0x60806040526010600155600154600a6200001a919062000194565b6002556201518060035566038d7ea4c6800060085560006009556046600a553480156200004657600080fd5b50620000676200005b6200006d60201b60201c565b6200007560201b60201c565b62000317565b600033905090565b60008060009054906101000a900473ffffffffffffffffffffffffffffffffffffffff169050816000806101000a81548173ffffffffffffffffffffffffffffffffffffffff021916908373ffffffffffffffffffffffffffffffffffffffff1602179055508173ffffffffffffffffffffffffffffffffffffffff168173ffffffffffffffffffffffffffffffffffffffff167f8be0079c531659141344cd1fd0a4f28419497f9722a3daafe3b4186f6b6457e060405160405180910390a35050565b6000808291508390505b60018511156200018b57808604811115620001635762000162620002db565b5b6001851615620001735780820291505b808102905062000183856200030a565b945062000143565b94509492505050565b6000620001a182620002d1565b9150620001ae83620002d1565b9250620001dd7fffffffffffffffffffffffffffffffffffffffffffffffffffffffffffffffff8484620001e5565b905092915050565b600082620001f75760019050620002ca565b81620002075760009050620002ca565b81600181146200022057600281146200022b5762000261565b6001915050620002ca565b60ff84111562000240576200023f620002db565b5b8360020a9150848211156200025a5762000259620002db565b5b50620002ca565b5060208310610133831016604e8410600b84101617156200029b5782820a905083811115620002955762000294620002db565b5b620002ca565b620002aa848484600162000139565b92509050818404811115620002c457620002c3620002db565b5b81810290505b9392505050565b6000819050919050565b7f4e487b7100000000000000000000000000000000000000000000000000000000600052601160045260246000fd5b60008160011c9050919050565b61206780620003276000396000f3fe6080604052600436106100dd5760003560e01c8063715018a61161007f578063c39cbef111610059578063c39cbef1146102a0578063ccf670f8146102c9578063e1fa7638146102f2578063f2fde38b1461031b576100dd565b8063715018a6146102355780637bff0a011461024c5780638da5cb5b14610275576100dd565b80634412e104116100bb5780634412e10414610169578063528b7b8f146101a65780635f4623f1146101e35780635faf28801461020c576100dd565b80630ce90ec2146100e257806317a7f4cc146100fe5780632052465e14610127575b600080fd5b6100fc60048036038101906100f79190611734565b610344565b005b34801561010a57600080fd5b50610125600480360381019061012091906117bd565b6103b9565b005b34801561013357600080fd5b5061014e60048036038101906101499190611734565b6104e6565b604051610160969594939291906119e5565b60405180910390f35b34801561017557600080fd5b50610190600480360381019061018b91906115df565b6105f6565b60405161019d91906119c3565b60405180910390f35b3480156101b257600080fd5b506101cd60048036038101906101c89190611734565b610749565b6040516101da91906119a8565b60405180910390f35b3480156101ef57600080fd5b5061020a600480360381019061020591906115df565b61077c565b005b34801561021857600080fd5b50610233600480360381019061022e91906117bd565b61083c565b005b34801561024157600080fd5b5061024a610924565b005b34801561025857600080fd5b50610273600480360381019061026e91906116eb565b6109ac565b005b34801561028157600080fd5b5061028a610a2d565b60405161029791906119a8565b60405180910390f35b3480156102ac57600080fd5b506102c760048036038101906102c29190611761565b610a56565b005b3480156102d557600080fd5b506102f060048036038101906102eb9190611734565b610b4e565b005b3480156102fe57600080fd5b50610319600480360381019061031491906117bd565b610bd4565b005b34801561032757600080fd5b50610342600480360381019061033d91906115df565b610e35565b005b600854341461035257600080fd5b6004818154811061036657610365611ee4565b5b9060005260206000209060030201600201600081819054906101000a900463ffffffff168092919061039790611dcb565b91906101000a81548163ffffffff021916908363ffffffff1602179055505050565b6000600760009054906101000a900473ffffffffffffffffffffffffffffffffffffffff1673ffffffffffffffffffffffffffffffffffffffff1663e98b7f4d836040518263ffffffff1660e01b81526004016104169190611a8d565b6101406040518083038186803b15801561042f57600080fd5b505afa158015610443573d6000803e3d6000fd5b505050506040513d601f19601f82011682018060405250810190610467919061160c565b909192939495969798509091929394959697509091929394959650909192939495509091929394509091929350909192509091509050809150506104e183826040518060400160405280600581526020017f6b69747479000000000000000000000000000000000000000000000000000000815250610f2d565b505050565b600481815481106104f657600080fd5b906000526020600020906003020160009150905080600001805461051990611cf4565b80601f016020809104026020016040519081016040528092919081815260200182805461054590611cf4565b80156105925780601f1061056757610100808354040283529160200191610592565b820191906000526020600020905b81548152906001019060200180831161057557829003601f168201915b5050505050908060010154908060020160009054906101000a900463ffffffff16908060020160049054906101000a900463ffffffff16908060020160089054906101000a900461ffff169080600201600a9054906101000a900461ffff16905086565b60606000600660008473ffffffffffffffffffffffffffffffffffffffff1673ffffffffffffffffffffffffffffffffffffffff1681526020019081526020016000205467ffffffffffffffff81111561065357610652611f13565b5b6040519080825280602002602001820160405280156106815781602001602082028036833780820191505090505b5090506000805b60048054905081101561073e578473ffffffffffffffffffffffffffffffffffffffff166005600083815260200190815260200160002060009054906101000a900473ffffffffffffffffffffffffffffffffffffffff1673ffffffffffffffffffffffffffffffffffffffff16141561072b57808383815181106107105761070f611ee4565b5b602002602001018181525050818061072790611d82565b9250505b808061073690611d82565b915050610688565b508192505050919050565b60056020528060005260406000206000915054906101000a900473ffffffffffffffffffffffffffffffffffffffff1681565b6107846110a7565b73ffffffffffffffffffffffffffffffffffffffff166107a2610a2d565b73ffffffffffffffffffffffffffffffffffffffff16146107f8576040517f08c379a00000000000000000000000000000000000000000000000000000000081526004016107ef90611a6d565b60405180910390fd5b80600760006101000a81548173ffffffffffffffffffffffffffffffffffffffff021916908373ffffffffffffffffffffffffffffffffffffffff16021790555050565b601482816004828154811061085457610853611ee4565b5b906000526020600020906003020160020160009054906101000a900463ffffffff1663ffffffff16101561088757600080fd5b836005600082815260200190815260200160002060009054906101000a900473ffffffffffffffffffffffffffffffffffffffff1673ffffffffffffffffffffffffffffffffffffffff163373ffffffffffffffffffffffffffffffffffffffff16146108f357600080fd5b836004868154811061090857610907611ee4565b5b9060005260206000209060030201600101819055505050505050565b61092c6110a7565b73ffffffffffffffffffffffffffffffffffffffff1661094a610a2d565b73ffffffffffffffffffffffffffffffffffffffff16146109a0576040517f08c379a000000000000000000000000000000000000000000000000000000000815260040161099790611a6d565b60405180910390fd5b6109aa60006110af565b565b6000600660003373ffffffffffffffffffffffffffffffffffffffff1673ffffffffffffffffffffffffffffffffffffffff16815260200190815260200160002054146109f857600080fd5b6000610a0382611173565b9050606481610a129190611e26565b81610a1d9190611c18565b9050610a298282611199565b5050565b60008060009054906101000a900473ffffffffffffffffffffffffffffffffffffffff16905090565b6002828160048281548110610a6e57610a6d611ee4565b5b906000526020600020906003020160020160009054906101000a900463ffffffff1663ffffffff161015610aa157600080fd5b836005600082815260200190815260200160002060009054906101000a900473ffffffffffffffffffffffffffffffffffffffff1673ffffffffffffffffffffffffffffffffffffffff163373ffffffffffffffffffffffffffffffffffffffff1614610b0d57600080fd5b8360048681548110610b2257610b21611ee4565b5b90600052602060002090600302016000019080519060200190610b46929190611478565b505050505050565b610b566110a7565b73ffffffffffffffffffffffffffffffffffffffff16610b74610a2d565b73ffffffffffffffffffffffffffffffffffffffff1614610bca576040517f08c379a0000000000000000000000000000000000000000000000000000000008152600401610bc190611a6d565b60405180910390fd5b8060088190555050565b816005600082815260200190815260200160002060009054906101000a900473ffffffffffffffffffffffffffffffffffffffff1673ffffffffffffffffffffffffffffffffffffffff163373ffffffffffffffffffffffffffffffffffffffff1614610c4057600080fd5b600060048481548110610c5657610c55611ee4565b5b90600052602060002090600302019050600060048481548110610c7c57610c7b611ee4565b5b906000526020600020906003020190506000610c9860646113c2565b9050600a548111610da95782600201600881819054906101000a900461ffff1680929190610cc590611d57565b91906101000a81548161ffff021916908361ffff1602179055505082600201600081819054906101000a900463ffffffff1680929190610d0490611dcb565b91906101000a81548163ffffffff021916908363ffffffff1602179055505081600201600a81819054906101000a900461ffff1680929190610d4590611d57565b91906101000a81548161ffff021916908361ffff16021790555050610da48683600101546040518060400160405280600681526020017f7a6f6d6269650000000000000000000000000000000000000000000000000000815250610f2d565b610e2d565b82600201600a81819054906101000a900461ffff1680929190610dcb90611d57565b91906101000a81548161ffff021916908361ffff1602179055505081600201600881819054906101000a900461ffff1680929190610e0890611d57565b91906101000a81548161ffff021916908361ffff16021790555050610e2c8361141e565b5b505050505050565b610e3d6110a7565b73ffffffffffffffffffffffffffffffffffffffff16610e5b610a2d565b73ffffffffffffffffffffffffffffffffffffffff1614610eb1576040517f08c379a0000000000000000000000000000000000000000000000000000000008152600401610ea890611a6d565b60405180910390fd5b600073ffffffffffffffffffffffffffffffffffffffff168173ffffffffffffffffffffffffffffffffffffffff161415610f21576040517f08c379a0000000000000000000000000000000000000000000000000000000008152600401610f1890611a4d565b60405180910390fd5b610f2a816110af565b50565b826005600082815260200190815260200160002060009054906101000a900473ffffffffffffffffffffffffffffffffffffffff1673ffffffffffffffffffffffffffffffffffffffff163373ffffffffffffffffffffffffffffffffffffffff1614610f9957600080fd5b600060048581548110610faf57610fae611ee4565b5b90600052602060002090600302019050610fc881611451565b610fd157600080fd5b60025484610fdf9190611e26565b935060006002858360010154610ff59190611b91565b610fff9190611be7565b90507f8d53323b21b9f304546f6d3e61cde865451064d614aa4912f395b755a9d8cad98480519060200120141561105757606360648261103f9190611e26565b8261104a9190611c18565b6110549190611b91565b90505b6110966040518060400160405280600681526020017f4e6f4e616d65000000000000000000000000000000000000000000000000000081525082611199565b61109f8261141e565b505050505050565b600033905090565b60008060009054906101000a900473ffffffffffffffffffffffffffffffffffffffff169050816000806101000a81548173ffffffffffffffffffffffffffffffffffffffff021916908373ffffffffffffffffffffffffffffffffffffffff1602179055508173ffffffffffffffffffffffffffffffffffffffff168173ffffffffffffffffffffffffffffffffffffffff167f8be0079c531659141344cd1fd0a4f28419497f9722a3daafe3b4186f6b6457e060405160405180910390a35050565b600080828051906020012060001c9050600254816111919190611e26565b915050919050565b60046040518060c00160405280848152602001838152602001600163ffffffff168152602001600354426111cd9190611b91565b63ffffffff168152602001600061ffff168152602001600061ffff1681525090806001815401808255809150506001900390600052602060002090600302016000909190919091506000820151816000019080519060200190611231929190611478565b506020820151816001015560408201518160020160006101000a81548163ffffffff021916908363ffffffff16021790555060608201518160020160046101000a81548163ffffffff021916908363ffffffff16021790555060808201518160020160086101000a81548161ffff021916908361ffff16021790555060a082015181600201600a6101000a81548161ffff021916908361ffff16021790555050503360056000600480549050815260200190815260200160002060006101000a81548173ffffffffffffffffffffffffffffffffffffffff021916908373ffffffffffffffffffffffffffffffffffffffff160217905550600660003373ffffffffffffffffffffffffffffffffffffffff1673ffffffffffffffffffffffffffffffffffffffff168152602001908152602001600020600081548092919061137990611d82565b91905055507f88f026aacbbecc90c18411df4b1185fd8d9be2470f1962f192bf84a27d0704b760048054905083836040516113b693929190611aa8565b60405180910390a15050565b6000600960008154809291906113d790611d82565b91905055508142336009546040516020016113f49392919061196b565b6040516020818303038152906040528051906020012060001c6114179190611e26565b9050919050565b6003544261142c9190611b91565b8160020160046101000a81548163ffffffff021916908363ffffffff16021790555050565b6000428260020160049054906101000a900463ffffffff1663ffffffff1611159050919050565b82805461148490611cf4565b90600052602060002090601f0160209004810192826114a657600085556114ed565b82601f106114bf57805160ff19168380011785556114ed565b828001600101855582156114ed579182015b828111156114ec5782518255916020019190600101906114d1565b5b5090506114fa91906114fe565b5090565b5b808211156115175760008160009055506001016114ff565b5090565b600061152e61152984611b0b565b611ae6565b90508281526020810184848401111561154a57611549611f47565b5b611555848285611cb2565b509392505050565b60008135905061156c81611fec565b92915050565b60008151905061158181612003565b92915050565b600082601f83011261159c5761159b611f42565b5b81356115ac84826020860161151b565b91505092915050565b6000813590506115c48161201a565b92915050565b6000815190506115d98161201a565b92915050565b6000602082840312156115f5576115f4611f51565b5b60006116038482850161155d565b91505092915050565b6000806000806000806000806000806101408b8d0312156116305761162f611f51565b5b600061163e8d828e01611572565b9a5050602061164f8d828e01611572565b99505060406116608d828e016115ca565b98505060606116718d828e016115ca565b97505060806116828d828e016115ca565b96505060a06116938d828e016115ca565b95505060c06116a48d828e016115ca565b94505060e06116b58d828e016115ca565b9350506101006116c78d828e016115ca565b9250506101206116d98d828e016115ca565b9150509295989b9194979a5092959850565b60006020828403121561170157611700611f51565b5b600082013567ffffffffffffffff81111561171f5761171e611f4c565b5b61172b84828501611587565b91505092915050565b60006020828403121561174a57611749611f51565b5b6000611758848285016115b5565b91505092915050565b6000806040838503121561177857611777611f51565b5b6000611786858286016115b5565b925050602083013567ffffffffffffffff8111156117a7576117a6611f4c565b5b6117b385828601611587565b9150509250929050565b600080604083850312156117d4576117d3611f51565b5b60006117e2858286016115b5565b92505060206117f3858286016115b5565b9150509250929050565b60006118098383611927565b60208301905092915050565b61181e81611c4c565b82525050565b61183561183082611c4c565b611df8565b82525050565b600061184682611b4c565b6118508185611b6f565b935061185b83611b3c565b8060005b8381101561188c57815161187388826117fd565b975061187e83611b62565b92505060018101905061185f565b5085935050505092915050565b60006118a482611b57565b6118ae8185611b80565b93506118be818560208601611cc1565b6118c781611f56565b840191505092915050565b60006118df602683611b80565b91506118ea82611f74565b604082019050919050565b6000611902602083611b80565b915061190d82611fc3565b602082019050919050565b61192181611c6a565b82525050565b61193081611c98565b82525050565b61193f81611c98565b82525050565b61195661195182611c98565b611e1c565b82525050565b61196581611ca2565b82525050565b60006119778286611945565b6020820191506119878285611824565b6014820191506119978284611945565b602082019150819050949350505050565b60006020820190506119bd6000830184611815565b92915050565b600060208201905081810360008301526119dd818461183b565b905092915050565b600060c08201905081810360008301526119ff8189611899565b9050611a0e6020830188611936565b611a1b604083018761195c565b611a28606083018661195c565b611a356080830185611918565b611a4260a0830184611918565b979650505050505050565b60006020820190508181036000830152611a66816118d2565b9050919050565b60006020820190508181036000830152611a86816118f5565b9050919050565b6000602082019050611aa26000830184611936565b92915050565b6000606082019050611abd6000830186611936565b8181036020830152611acf8185611899565b9050611ade6040830184611936565b949350505050565b6000611af0611b01565b9050611afc8282611d26565b919050565b6000604051905090565b600067ffffffffffffffff821115611b2657611b25611f13565b5b611b2f82611f56565b9050602081019050919050565b6000819050602082019050919050565b600081519050919050565b600081519050919050565b6000602082019050919050565b600082825260208201905092915050565b600082825260208201905092915050565b6000611b9c82611c98565b9150611ba783611c98565b9250827fffffffffffffffffffffffffffffffffffffffffffffffffffffffffffffffff03821115611bdc57611bdb611e57565b5b828201905092915050565b6000611bf282611c98565b9150611bfd83611c98565b925082611c0d57611c0c611e86565b5b828204905092915050565b6000611c2382611c98565b9150611c2e83611c98565b925082821015611c4157611c40611e57565b5b828203905092915050565b6000611c5782611c78565b9050919050565b60008115159050919050565b600061ffff82169050919050565b600073ffffffffffffffffffffffffffffffffffffffff82169050919050565b6000819050919050565b600063ffffffff82169050919050565b82818337600083830152505050565b60005b83811015611cdf578082015181840152602081019050611cc4565b83811115611cee576000848401525b50505050565b60006002820490506001821680611d0c57607f821691505b60208210811415611d2057611d1f611eb5565b5b50919050565b611d2f82611f56565b810181811067ffffffffffffffff82111715611d4e57611d4d611f13565b5b80604052505050565b6000611d6282611c6a565b915061ffff821415611d7757611d76611e57565b5b600182019050919050565b6000611d8d82611c98565b91507fffffffffffffffffffffffffffffffffffffffffffffffffffffffffffffffff821415611dc057611dbf611e57565b5b600182019050919050565b6000611dd682611ca2565b915063ffffffff821415611ded57611dec611e57565b5b600182019050919050565b6000611e0382611e0a565b9050919050565b6000611e1582611f67565b9050919050565b6000819050919050565b6000611e3182611c98565b9150611e3c83611c98565b925082611e4c57611e4b611e86565b5b828206905092915050565b7f4e487b7100000000000000000000000000000000000000000000000000000000600052601160045260246000fd5b7f4e487b7100000000000000000000000000000000000000000000000000000000600052601260045260246000fd5b7f4e487b7100000000000000000000000000000000000000000000000000000000600052602260045260246000fd5b7f4e487b7100000000000000000000000000000000000000000000000000000000600052603260045260246000fd5b7f4e487b7100000000000000000000000000000000000000000000000000000000600052604160045260246000fd5b600080fd5b600080fd5b600080fd5b600080fd5b6000601f19601f8301169050919050565b60008160601b9050919050565b7f4f776e61626c653a206e6577206f776e657220697320746865207a65726f206160008201527f6464726573730000000000000000000000000000000000000000000000000000602082015250565b7f4f776e61626c653a2063616c6c6572206973206e6f7420746865206f776e6572600082015250565b611ff581611c4c565b811461200057600080fd5b50565b61200c81611c5e565b811461201757600080fd5b50565b61202381611c98565b811461202e57600080fd5b5056fea264697066735822122070941eb26f4c101e20e1c0d5cbb2f3d002abcc94d06d3b179d5f0997ac826e8a64736f6c63430008050033",
  "immutableReferences": {},
  "source": "// SPDX-License-Identifier: MIT\r\npragma solidity >=0.6.19 <0.8.6;\r\nimport \"./ZombieHelper.sol\";\r\ncontract ZombieAttack is ZombieHelper {\r\n  uint randNonce = 0;\r\n  uint attackVictoryProbability = 70;\r\n  function randMod(uint _modulus) internal returns(uint) {\r\n    randNonce++;\r\n    return uint(keccak256(abi.encodePacked(block.timestamp, msg.sender, randNonce))) % _modulus;\r\n  }\r\n  function attack(uint _zombieId, uint _targetId) external onlyOwnerOf(_zombieId) {\r\n    Zombie storage myZombie = zombies[_zombieId];\r\n    Zombie storage enemyZombie = zombies[_targetId];\r\n    uint rand = randMod(100);\r\n    if (rand <= attackVictoryProbability) {\r\n      myZombie.winCount++;\r\n      myZombie.level++;\r\n      enemyZombie.lossCount++;\r\n      feedAndMultiply(_zombieId, enemyZombie.dna, \"zombie\");\r\n    } else {\r\n      myZombie.lossCount++;\r\n      enemyZombie.winCount++;\r\n      _triggerCooldown(myZombie);\r\n    }\r\n  }\r\n}\r\n\r\n",
  "sourcePath": "C:\\code\\cryptodapp\\contracts\\ZombieAttack.sol",
  "compiler": {
    "name": "solc",
    "version": "0.8.5+commit.a4f2e591.Emscripten.clang"
  },
  "schemaVersion": "3.4.1",
  "updatedAt": "2021-07-02T16:55:21.553Z",
  "networkType": "ethereum",
  "devdoc": {
    "kind": "dev",
    "methods": {
      "owner()": {
        "details": "Returns the address of the current owner."
      },
      "renounceOwnership()": {
        "details": "Leaves the contract without owner. It will not be possible to call `onlyOwner` functions anymore. Can only be called by the current owner. NOTE: Renouncing ownership will leave the contract without an owner, thereby removing any functionality that is only available to the owner."
      },
      "transferOwnership(address)": {
        "details": "Transfers ownership of the contract to a new account (`newOwner`). Can only be called by the current owner."
      }
    },
    "version": 1
  },
  "userdoc": {
    "kind": "user",
    "methods": {},
    "version": 1
  }
}