{
  "contractName": "ZombieHelper",
  "abi": [
    {
      "anonymous": false,
      "inputs": [
        {
          "indexed": false,
          "internalType": "uint256",
          "name": "zombieId",
          "type": "uint256"
        },
        {
          "indexed": false,
          "internalType": "string",
          "name": "name",
          "type": "string"
        },
        {
          "indexed": false,
          "internalType": "uint256",
          "name": "dna",
          "type": "uint256"
        }
      ],
      "name": "NewZombie",
      "type": "event"
    },
    {
      "anonymous": false,
      "inputs": [
        {
          "indexed": true,
          "internalType": "address",
          "name": "previousOwner",
          "type": "address"
        },
        {
          "indexed": true,
          "internalType": "address",
          "name": "newOwner",
          "type": "address"
        }
      ],
      "name": "OwnershipTransferred",
      "type": "event"
    },
    {
      "inputs": [
        {
          "internalType": "string",
          "name": "_name",
          "type": "string"
        }
      ],
      "name": "createRandomZombie",
      "outputs": [],
      "stateMutability": "nonpayable",
      "type": "function"
    },
    {
      "inputs": [
        {
          "internalType": "uint256",
          "name": "_zombieId",
          "type": "uint256"
        },
        {
          "internalType": "uint256",
          "name": "_kittyId",
          "type": "uint256"
        }
      ],
      "name": "feedOnKitty",
      "outputs": [],
      "stateMutability": "nonpayable",
      "type": "function"
    },
    {
      "inputs": [],
      "name": "owner",
      "outputs": [
        {
          "internalType": "address",
          "name": "",
          "type": "address"
        }
      ],
      "stateMutability": "view",
      "type": "function",
      "constant": true
    },
    {
      "inputs": [],
      "name": "renounceOwnership",
      "outputs": [],
      "stateMutability": "nonpayable",
      "type": "function"
    },
    {
      "inputs": [
        {
          "internalType": "address",
          "name": "_address",
          "type": "address"
        }
      ],
      "name": "setKittyContractAddress",
      "outputs": [],
      "stateMutability": "nonpayable",
      "type": "function"
    },
    {
      "inputs": [
        {
          "internalType": "address",
          "name": "newOwner",
          "type": "address"
        }
      ],
      "name": "transferOwnership",
      "outputs": [],
      "stateMutability": "nonpayable",
      "type": "function"
    },
    {
      "inputs": [
        {
          "internalType": "uint256",
          "name": "",
          "type": "uint256"
        }
      ],
      "name": "zombieToOwner",
      "outputs": [
        {
          "internalType": "address",
          "name": "",
          "type": "address"
        }
      ],
      "stateMutability": "view",
      "type": "function",
      "constant": true
    },
    {
      "inputs": [
        {
          "internalType": "uint256",
          "name": "",
          "type": "uint256"
        }
      ],
      "name": "zombies",
      "outputs": [
        {
          "internalType": "string",
          "name": "name",
          "type": "string"
        },
        {
          "internalType": "uint256",
          "name": "dna",
          "type": "uint256"
        },
        {
          "internalType": "uint32",
          "name": "level",
          "type": "uint32"
        },
        {
          "internalType": "uint32",
          "name": "readyTime",
          "type": "uint32"
        },
        {
          "internalType": "uint16",
          "name": "winCount",
          "type": "uint16"
        },
        {
          "internalType": "uint16",
          "name": "lossCount",
          "type": "uint16"
        }
      ],
      "stateMutability": "view",
      "type": "function",
      "constant": true
    },
    {
      "inputs": [
        {
          "internalType": "uint256",
          "name": "_fee",
          "type": "uint256"
        }
      ],
      "name": "setLevelUpFee",
      "outputs": [],
      "stateMutability": "nonpayable",
      "type": "function"
    },
    {
      "inputs": [
        {
          "internalType": "uint256",
          "name": "_zombieId",
          "type": "uint256"
        }
      ],
      "name": "levelUp",
      "outputs": [],
      "stateMutability": "payable",
      "type": "function",
      "payable": true
    },
    {
      "inputs": [
        {
          "internalType": "uint256",
          "name": "_zombieId",
          "type": "uint256"
        },
        {
          "internalType": "string",
          "name": "_newName",
          "type": "string"
        }
      ],
      "name": "changeName",
      "outputs": [],
      "stateMutability": "nonpayable",
      "type": "function"
    },
    {
      "inputs": [
        {
          "internalType": "uint256",
          "name": "_zombieId",
          "type": "uint256"
        },
        {
          "internalType": "uint256",
          "name": "_newDna",
          "type": "uint256"
        }
      ],
      "name": "changeDna",
      "outputs": [],
      "stateMutability": "nonpayable",
      "type": "function"
    },
    {
      "inputs": [
        {
          "internalType": "address",
          "name": "_owner",
          "type": "address"
        }
      ],
      "name": "getZombiesByOwner",
      "outputs": [
        {
          "internalType": "uint256[]",
          "name": "",
          "type": "uint256[]"
        }
      ],
      "stateMutability": "view",
      "type": "function",
      "constant": true
    }
  ],
  "bytecode": "0x60806040526010600155600154600a6200001a91906200018a565b6002556201518060035566038d7ea4c680006008553480156200003c57600080fd5b506200005d620000516200006360201b60201c565b6200006b60201b60201c565b6200030d565b600033905090565b60008060009054906101000a900473ffffffffffffffffffffffffffffffffffffffff169050816000806101000a81548173ffffffffffffffffffffffffffffffffffffffff021916908373ffffffffffffffffffffffffffffffffffffffff1602179055508173ffffffffffffffffffffffffffffffffffffffff168173ffffffffffffffffffffffffffffffffffffffff167f8be0079c531659141344cd1fd0a4f28419497f9722a3daafe3b4186f6b6457e060405160405180910390a35050565b6000808291508390505b60018511156200018157808604811115620001595762000158620002d1565b5b6001851615620001695780820291505b8081029050620001798562000300565b945062000139565b94509492505050565b60006200019782620002c7565b9150620001a483620002c7565b9250620001d37fffffffffffffffffffffffffffffffffffffffffffffffffffffffffffffffff8484620001db565b905092915050565b600082620001ed5760019050620002c0565b81620001fd5760009050620002c0565b8160018114620002165760028114620002215762000257565b6001915050620002c0565b60ff841115620002365762000235620002d1565b5b8360020a91508482111562000250576200024f620002d1565b5b50620002c0565b5060208310610133831016604e8410600b8410161715620002915782820a9050838111156200028b576200028a620002d1565b5b620002c0565b620002a084848460016200012f565b92509050818404811115620002ba57620002b9620002d1565b5b81810290505b9392505050565b6000819050919050565b7f4e487b7100000000000000000000000000000000000000000000000000000000600052601160045260246000fd5b60008160011c9050919050565b611c95806200031d6000396000f3fe6080604052600436106100c25760003560e01c80635faf28801161007f5780638da5cb5b116100595780638da5cb5b1461025a578063c39cbef114610285578063ccf670f8146102ae578063f2fde38b146102d7576100c2565b80635faf2880146101f1578063715018a61461021a5780637bff0a0114610231576100c2565b80630ce90ec2146100c757806317a7f4cc146100e35780632052465e1461010c5780634412e1041461014e578063528b7b8f1461018b5780635f4623f1146101c8575b600080fd5b6100e160048036038101906100dc9190611433565b610300565b005b3480156100ef57600080fd5b5061010a600480360381019061010591906114bc565b610375565b005b34801561011857600080fd5b50610133600480360381019061012e9190611433565b6104a2565b60405161014596959493929190611679565b60405180910390f35b34801561015a57600080fd5b50610175600480360381019061017091906112de565b6105b2565b6040516101829190611657565b60405180910390f35b34801561019757600080fd5b506101b260048036038101906101ad9190611433565b610705565b6040516101bf919061163c565b60405180910390f35b3480156101d457600080fd5b506101ef60048036038101906101ea91906112de565b610738565b005b3480156101fd57600080fd5b50610218600480360381019061021391906114bc565b6107f8565b005b34801561022657600080fd5b5061022f6108e0565b005b34801561023d57600080fd5b50610258600480360381019061025391906113ea565b610968565b005b34801561026657600080fd5b5061026f6109e9565b60405161027c919061163c565b60405180910390f35b34801561029157600080fd5b506102ac60048036038101906102a79190611460565b610a12565b005b3480156102ba57600080fd5b506102d560048036038101906102d09190611433565b610b0a565b005b3480156102e357600080fd5b506102fe60048036038101906102f991906112de565b610b90565b005b600854341461030e57600080fd5b6004818154811061032257610321611b1f565b5b9060005260206000209060030201600201600081819054906101000a900463ffffffff168092919061035390611a34565b91906101000a81548163ffffffff021916908363ffffffff1602179055505050565b6000600760009054906101000a900473ffffffffffffffffffffffffffffffffffffffff1673ffffffffffffffffffffffffffffffffffffffff1663e98b7f4d836040518263ffffffff1660e01b81526004016103d29190611721565b6101406040518083038186803b1580156103eb57600080fd5b505afa1580156103ff573d6000803e3d6000fd5b505050506040513d601f19601f82011682018060405250810190610423919061130b565b9091929394959697985090919293949596975090919293949596509091929394955090919293945090919293509091925090915090508091505061049d83826040518060400160405280600581526020017f6b69747479000000000000000000000000000000000000000000000000000000815250610c88565b505050565b600481815481106104b257600080fd5b90600052602060002090600302016000915090508060000180546104d590611988565b80601f016020809104026020016040519081016040528092919081815260200182805461050190611988565b801561054e5780601f106105235761010080835404028352916020019161054e565b820191906000526020600020905b81548152906001019060200180831161053157829003601f168201915b5050505050908060010154908060020160009054906101000a900463ffffffff16908060020160049054906101000a900463ffffffff16908060020160089054906101000a900461ffff169080600201600a9054906101000a900461ffff16905086565b60606000600660008473ffffffffffffffffffffffffffffffffffffffff1673ffffffffffffffffffffffffffffffffffffffff1681526020019081526020016000205467ffffffffffffffff81111561060f5761060e611b4e565b5b60405190808252806020026020018201604052801561063d5781602001602082028036833780820191505090505b5090506000805b6004805490508110156106fa578473ffffffffffffffffffffffffffffffffffffffff166005600083815260200190815260200160002060009054906101000a900473ffffffffffffffffffffffffffffffffffffffff1673ffffffffffffffffffffffffffffffffffffffff1614156106e757808383815181106106cc576106cb611b1f565b5b60200260200101818152505081806106e3906119eb565b9250505b80806106f2906119eb565b915050610644565b508192505050919050565b60056020528060005260406000206000915054906101000a900473ffffffffffffffffffffffffffffffffffffffff1681565b610740610e02565b73ffffffffffffffffffffffffffffffffffffffff1661075e6109e9565b73ffffffffffffffffffffffffffffffffffffffff16146107b4576040517f08c379a00000000000000000000000000000000000000000000000000000000081526004016107ab90611701565b60405180910390fd5b80600760006101000a81548173ffffffffffffffffffffffffffffffffffffffff021916908373ffffffffffffffffffffffffffffffffffffffff16021790555050565b60148281600482815481106108105761080f611b1f565b5b906000526020600020906003020160020160009054906101000a900463ffffffff1663ffffffff16101561084357600080fd5b836005600082815260200190815260200160002060009054906101000a900473ffffffffffffffffffffffffffffffffffffffff1673ffffffffffffffffffffffffffffffffffffffff163373ffffffffffffffffffffffffffffffffffffffff16146108af57600080fd5b83600486815481106108c4576108c3611b1f565b5b9060005260206000209060030201600101819055505050505050565b6108e8610e02565b73ffffffffffffffffffffffffffffffffffffffff166109066109e9565b73ffffffffffffffffffffffffffffffffffffffff161461095c576040517f08c379a000000000000000000000000000000000000000000000000000000000815260040161095390611701565b60405180910390fd5b6109666000610e0a565b565b6000600660003373ffffffffffffffffffffffffffffffffffffffff1673ffffffffffffffffffffffffffffffffffffffff16815260200190815260200160002054146109b457600080fd5b60006109bf82610ece565b90506064816109ce9190611a61565b816109d991906118ac565b90506109e58282610ef4565b5050565b60008060009054906101000a900473ffffffffffffffffffffffffffffffffffffffff16905090565b6002828160048281548110610a2a57610a29611b1f565b5b906000526020600020906003020160020160009054906101000a900463ffffffff1663ffffffff161015610a5d57600080fd5b836005600082815260200190815260200160002060009054906101000a900473ffffffffffffffffffffffffffffffffffffffff1673ffffffffffffffffffffffffffffffffffffffff163373ffffffffffffffffffffffffffffffffffffffff1614610ac957600080fd5b8360048681548110610ade57610add611b1f565b5b90600052602060002090600302016000019080519060200190610b02929190611177565b505050505050565b610b12610e02565b73ffffffffffffffffffffffffffffffffffffffff16610b306109e9565b73ffffffffffffffffffffffffffffffffffffffff1614610b86576040517f08c379a0000000000000000000000000000000000000000000000000000000008152600401610b7d90611701565b60405180910390fd5b8060088190555050565b610b98610e02565b73ffffffffffffffffffffffffffffffffffffffff16610bb66109e9565b73ffffffffffffffffffffffffffffffffffffffff1614610c0c576040517f08c379a0000000000000000000000000000000000000000000000000000000008152600401610c0390611701565b60405180910390fd5b600073ffffffffffffffffffffffffffffffffffffffff168173ffffffffffffffffffffffffffffffffffffffff161415610c7c576040517f08c379a0000000000000000000000000000000000000000000000000000000008152600401610c73906116e1565b60405180910390fd5b610c8581610e0a565b50565b826005600082815260200190815260200160002060009054906101000a900473ffffffffffffffffffffffffffffffffffffffff1673ffffffffffffffffffffffffffffffffffffffff163373ffffffffffffffffffffffffffffffffffffffff1614610cf457600080fd5b600060048581548110610d0a57610d09611b1f565b5b90600052602060002090600302019050610d238161111d565b610d2c57600080fd5b60025484610d3a9190611a61565b935060006002858360010154610d509190611825565b610d5a919061187b565b90507f8d53323b21b9f304546f6d3e61cde865451064d614aa4912f395b755a9d8cad984805190602001201415610db2576063606482610d9a9190611a61565b82610da591906118ac565b610daf9190611825565b90505b610df16040518060400160405280600681526020017f4e6f4e616d65000000000000000000000000000000000000000000000000000081525082610ef4565b610dfa82611144565b505050505050565b600033905090565b60008060009054906101000a900473ffffffffffffffffffffffffffffffffffffffff169050816000806101000a81548173ffffffffffffffffffffffffffffffffffffffff021916908373ffffffffffffffffffffffffffffffffffffffff1602179055508173ffffffffffffffffffffffffffffffffffffffff168173ffffffffffffffffffffffffffffffffffffffff167f8be0079c531659141344cd1fd0a4f28419497f9722a3daafe3b4186f6b6457e060405160405180910390a35050565b600080828051906020012060001c905060025481610eec9190611a61565b915050919050565b60046040518060c00160405280848152602001838152602001600163ffffffff16815260200160035442610f289190611825565b63ffffffff168152602001600061ffff168152602001600061ffff1681525090806001815401808255809150506001900390600052602060002090600302016000909190919091506000820151816000019080519060200190610f8c929190611177565b506020820151816001015560408201518160020160006101000a81548163ffffffff021916908363ffffffff16021790555060608201518160020160046101000a81548163ffffffff021916908363ffffffff16021790555060808201518160020160086101000a81548161ffff021916908361ffff16021790555060a082015181600201600a6101000a81548161ffff021916908361ffff16021790555050503360056000600480549050815260200190815260200160002060006101000a81548173ffffffffffffffffffffffffffffffffffffffff021916908373ffffffffffffffffffffffffffffffffffffffff160217905550600660003373ffffffffffffffffffffffffffffffffffffffff1673ffffffffffffffffffffffffffffffffffffffff16815260200190815260200160002060008154809291906110d4906119eb565b91905055507f88f026aacbbecc90c18411df4b1185fd8d9be2470f1962f192bf84a27d0704b760048054905083836040516111119392919061173c565b60405180910390a15050565b6000428260020160049054906101000a900463ffffffff1663ffffffff1611159050919050565b600354426111529190611825565b8160020160046101000a81548163ffffffff021916908363ffffffff16021790555050565b82805461118390611988565b90600052602060002090601f0160209004810192826111a557600085556111ec565b82601f106111be57805160ff19168380011785556111ec565b828001600101855582156111ec579182015b828111156111eb5782518255916020019190600101906111d0565b5b5090506111f991906111fd565b5090565b5b808211156112165760008160009055506001016111fe565b5090565b600061122d6112288461179f565b61177a565b90508281526020810184848401111561124957611248611b82565b5b611254848285611946565b509392505050565b60008135905061126b81611c1a565b92915050565b60008151905061128081611c31565b92915050565b600082601f83011261129b5761129a611b7d565b5b81356112ab84826020860161121a565b91505092915050565b6000813590506112c381611c48565b92915050565b6000815190506112d881611c48565b92915050565b6000602082840312156112f4576112f3611b8c565b5b60006113028482850161125c565b91505092915050565b6000806000806000806000806000806101408b8d03121561132f5761132e611b8c565b5b600061133d8d828e01611271565b9a5050602061134e8d828e01611271565b995050604061135f8d828e016112c9565b98505060606113708d828e016112c9565b97505060806113818d828e016112c9565b96505060a06113928d828e016112c9565b95505060c06113a38d828e016112c9565b94505060e06113b48d828e016112c9565b9350506101006113c68d828e016112c9565b9250506101206113d88d828e016112c9565b9150509295989b9194979a5092959850565b600060208284031215611400576113ff611b8c565b5b600082013567ffffffffffffffff81111561141e5761141d611b87565b5b61142a84828501611286565b91505092915050565b60006020828403121561144957611448611b8c565b5b6000611457848285016112b4565b91505092915050565b6000806040838503121561147757611476611b8c565b5b6000611485858286016112b4565b925050602083013567ffffffffffffffff8111156114a6576114a5611b87565b5b6114b285828601611286565b9150509250929050565b600080604083850312156114d3576114d2611b8c565b5b60006114e1858286016112b4565b92505060206114f2858286016112b4565b9150509250929050565b6000611508838361160f565b60208301905092915050565b61151d816118e0565b82525050565b600061152e826117e0565b6115388185611803565b9350611543836117d0565b8060005b8381101561157457815161155b88826114fc565b9750611566836117f6565b925050600181019050611547565b5085935050505092915050565b600061158c826117eb565b6115968185611814565b93506115a6818560208601611955565b6115af81611b91565b840191505092915050565b60006115c7602683611814565b91506115d282611ba2565b604082019050919050565b60006115ea602083611814565b91506115f582611bf1565b602082019050919050565b611609816118fe565b82525050565b6116188161192c565b82525050565b6116278161192c565b82525050565b61163681611936565b82525050565b60006020820190506116516000830184611514565b92915050565b600060208201905081810360008301526116718184611523565b905092915050565b600060c08201905081810360008301526116938189611581565b90506116a2602083018861161e565b6116af604083018761162d565b6116bc606083018661162d565b6116c96080830185611600565b6116d660a0830184611600565b979650505050505050565b600060208201905081810360008301526116fa816115ba565b9050919050565b6000602082019050818103600083015261171a816115dd565b9050919050565b6000602082019050611736600083018461161e565b92915050565b6000606082019050611751600083018661161e565b81810360208301526117638185611581565b9050611772604083018461161e565b949350505050565b6000611784611795565b905061179082826119ba565b919050565b6000604051905090565b600067ffffffffffffffff8211156117ba576117b9611b4e565b5b6117c382611b91565b9050602081019050919050565b6000819050602082019050919050565b600081519050919050565b600081519050919050565b6000602082019050919050565b600082825260208201905092915050565b600082825260208201905092915050565b60006118308261192c565b915061183b8361192c565b9250827fffffffffffffffffffffffffffffffffffffffffffffffffffffffffffffffff038211156118705761186f611a92565b5b828201905092915050565b60006118868261192c565b91506118918361192c565b9250826118a1576118a0611ac1565b5b828204905092915050565b60006118b78261192c565b91506118c28361192c565b9250828210156118d5576118d4611a92565b5b828203905092915050565b60006118eb8261190c565b9050919050565b60008115159050919050565b600061ffff82169050919050565b600073ffffffffffffffffffffffffffffffffffffffff82169050919050565b6000819050919050565b600063ffffffff82169050919050565b82818337600083830152505050565b60005b83811015611973578082015181840152602081019050611958565b83811115611982576000848401525b50505050565b600060028204905060018216806119a057607f821691505b602082108114156119b4576119b3611af0565b5b50919050565b6119c382611b91565b810181811067ffffffffffffffff821117156119e2576119e1611b4e565b5b80604052505050565b60006119f68261192c565b91507fffffffffffffffffffffffffffffffffffffffffffffffffffffffffffffffff821415611a2957611a28611a92565b5b600182019050919050565b6000611a3f82611936565b915063ffffffff821415611a5657611a55611a92565b5b600182019050919050565b6000611a6c8261192c565b9150611a778361192c565b925082611a8757611a86611ac1565b5b828206905092915050565b7f4e487b7100000000000000000000000000000000000000000000000000000000600052601160045260246000fd5b7f4e487b7100000000000000000000000000000000000000000000000000000000600052601260045260246000fd5b7f4e487b7100000000000000000000000000000000000000000000000000000000600052602260045260246000fd5b7f4e487b7100000000000000000000000000000000000000000000000000000000600052603260045260246000fd5b7f4e487b7100000000000000000000000000000000000000000000000000000000600052604160045260246000fd5b600080fd5b600080fd5b600080fd5b600080fd5b6000601f19601f8301169050919050565b7f4f776e61626c653a206e6577206f776e657220697320746865207a65726f206160008201527f6464726573730000000000000000000000000000000000000000000000000000602082015250565b7f4f776e61626c653a2063616c6c6572206973206e6f7420746865206f776e6572600082015250565b611c23816118e0565b8114611c2e57600080fd5b50565b611c3a816118f2565b8114611c4557600080fd5b50565b611c518161192c565b8114611c5c57600080fd5b5056fea2646970667358221220b64172a05e5b5cae03c6b9678222def78356d9c105b6ea96eafc23261b2cf3c164736f6c63430008050033",
  "immutableReferences": {},
  "source": "// SPDX-License-Identifier: MIT\r\npragma solidity >=0.6.19 <0.8.6;\r\nimport \"./ZombieFeeding.sol\";\r\ncontract ZombieHelper is ZombieFeeding {\r\n  uint levelUpFee = 0.001 ether;\r\n  modifier aboveLevel(uint _level, uint _zombieId) {\r\n    require(zombies[_zombieId].level >= _level);\r\n    _;\r\n  }\r\n   //nothing calls this? \r\n  //function withdraw() external onlyOwner {\r\n  //  owner.transfer(this.balance);\r\n // }\r\n  function setLevelUpFee(uint _fee) external onlyOwner {\r\n    levelUpFee = _fee;\r\n  }\r\n  function levelUp(uint _zombieId) external payable {\r\n    require(msg.value == levelUpFee);\r\n    zombies[_zombieId].level++;\r\n  }\r\n  function changeName(uint _zombieId, string memory _newName) external aboveLevel(2, _zombieId) onlyOwnerOf(_zombieId) {\r\n    zombies[_zombieId].name = _newName;\r\n  }\r\n  function changeDna(uint _zombieId, uint _newDna) external aboveLevel(20, _zombieId) onlyOwnerOf(_zombieId) {\r\n    zombies[_zombieId].dna = _newDna;\r\n  }\r\n  function getZombiesByOwner(address _owner) external view returns(uint[] memory) {\r\n    uint[] memory result = new uint[](ownerZombieCount[_owner]);\r\n    uint counter = 0;\r\n    for (uint i = 0; i < zombies.length; i++) {\r\n      if (zombieToOwner[i] == _owner) {\r\n        result[counter] = i;\r\n        counter++;\r\n      }\r\n    }\r\n    return result;\r\n  }\r\n}\r\n\r\n",
  "sourcePath": "C:\\code\\cryptodapp\\contracts\\ZombieHelper.sol",
  "compiler": {
    "name": "solc",
    "version": "0.8.5+commit.a4f2e591.Emscripten.clang"
  },
  "schemaVersion": "3.4.1",
  "updatedAt": "2021-07-02T16:55:21.543Z",
  "networkType": "ethereum",
  "devdoc": {
    "kind": "dev",
    "methods": {
      "owner()": {
        "details": "Returns the address of the current owner."
      },
      "renounceOwnership()": {
        "details": "Leaves the contract without owner. It will not be possible to call `onlyOwner` functions anymore. Can only be called by the current owner. NOTE: Renouncing ownership will leave the contract without an owner, thereby removing any functionality that is only available to the owner."
      },
      "transferOwnership(address)": {
        "details": "Transfers ownership of the contract to a new account (`newOwner`). Can only be called by the current owner."
      }
    },
    "version": 1
  },
  "userdoc": {
    "kind": "user",
    "methods": {},
    "version": 1
  }
}