{
  "contractName": "ZombieOwnership",
  "abi": [
    {
      "inputs": [],
      "stateMutability": "nonpayable",
      "type": "constructor"
    },
    {
      "anonymous": false,
      "inputs": [
        {
          "indexed": true,
          "internalType": "address",
          "name": "owner",
          "type": "address"
        },
        {
          "indexed": true,
          "internalType": "address",
          "name": "approved",
          "type": "address"
        },
        {
          "indexed": true,
          "internalType": "uint256",
          "name": "tokenId",
          "type": "uint256"
        }
      ],
      "name": "Approval",
      "type": "event"
    },
    {
      "anonymous": false,
      "inputs": [
        {
          "indexed": true,
          "internalType": "address",
          "name": "owner",
          "type": "address"
        },
        {
          "indexed": true,
          "internalType": "address",
          "name": "operator",
          "type": "address"
        },
        {
          "indexed": false,
          "internalType": "bool",
          "name": "approved",
          "type": "bool"
        }
      ],
      "name": "ApprovalForAll",
      "type": "event"
    },
    {
      "anonymous": false,
      "inputs": [
        {
          "indexed": false,
          "internalType": "uint256",
          "name": "zombieId",
          "type": "uint256"
        },
        {
          "indexed": false,
          "internalType": "string",
          "name": "name",
          "type": "string"
        },
        {
          "indexed": false,
          "internalType": "uint256",
          "name": "dna",
          "type": "uint256"
        }
      ],
      "name": "NewZombie",
      "type": "event"
    },
    {
      "anonymous": false,
      "inputs": [
        {
          "indexed": true,
          "internalType": "address",
          "name": "previousOwner",
          "type": "address"
        },
        {
          "indexed": true,
          "internalType": "address",
          "name": "newOwner",
          "type": "address"
        }
      ],
      "name": "OwnershipTransferred",
      "type": "event"
    },
    {
      "anonymous": false,
      "inputs": [
        {
          "indexed": true,
          "internalType": "address",
          "name": "from",
          "type": "address"
        },
        {
          "indexed": true,
          "internalType": "address",
          "name": "to",
          "type": "address"
        },
        {
          "indexed": true,
          "internalType": "uint256",
          "name": "tokenId",
          "type": "uint256"
        }
      ],
      "name": "Transfer",
      "type": "event"
    },
    {
      "inputs": [
        {
          "internalType": "uint256",
          "name": "_zombieId",
          "type": "uint256"
        },
        {
          "internalType": "uint256",
          "name": "_targetId",
          "type": "uint256"
        }
      ],
      "name": "attack",
      "outputs": [],
      "stateMutability": "nonpayable",
      "type": "function"
    },
    {
      "inputs": [
        {
          "internalType": "uint256",
          "name": "_zombieId",
          "type": "uint256"
        },
        {
          "internalType": "uint256",
          "name": "_newDna",
          "type": "uint256"
        }
      ],
      "name": "changeDna",
      "outputs": [],
      "stateMutability": "nonpayable",
      "type": "function"
    },
    {
      "inputs": [
        {
          "internalType": "uint256",
          "name": "_zombieId",
          "type": "uint256"
        },
        {
          "internalType": "string",
          "name": "_newName",
          "type": "string"
        }
      ],
      "name": "changeName",
      "outputs": [],
      "stateMutability": "nonpayable",
      "type": "function"
    },
    {
      "inputs": [
        {
          "internalType": "string",
          "name": "_name",
          "type": "string"
        }
      ],
      "name": "createRandomZombie",
      "outputs": [],
      "stateMutability": "nonpayable",
      "type": "function"
    },
    {
      "inputs": [
        {
          "internalType": "uint256",
          "name": "_zombieId",
          "type": "uint256"
        },
        {
          "internalType": "uint256",
          "name": "_kittyId",
          "type": "uint256"
        }
      ],
      "name": "feedOnKitty",
      "outputs": [],
      "stateMutability": "nonpayable",
      "type": "function"
    },
    {
      "inputs": [
        {
          "internalType": "uint256",
          "name": "tokenId",
          "type": "uint256"
        }
      ],
      "name": "getApproved",
      "outputs": [
        {
          "internalType": "address",
          "name": "",
          "type": "address"
        }
      ],
      "stateMutability": "view",
      "type": "function",
      "constant": true
    },
    {
      "inputs": [
        {
          "internalType": "address",
          "name": "_owner",
          "type": "address"
        }
      ],
      "name": "getZombiesByOwner",
      "outputs": [
        {
          "internalType": "uint256[]",
          "name": "",
          "type": "uint256[]"
        }
      ],
      "stateMutability": "view",
      "type": "function",
      "constant": true
    },
    {
      "inputs": [
        {
          "internalType": "address",
          "name": "owner",
          "type": "address"
        },
        {
          "internalType": "address",
          "name": "operator",
          "type": "address"
        }
      ],
      "name": "isApprovedForAll",
      "outputs": [
        {
          "internalType": "bool",
          "name": "",
          "type": "bool"
        }
      ],
      "stateMutability": "view",
      "type": "function",
      "constant": true
    },
    {
      "inputs": [
        {
          "internalType": "uint256",
          "name": "_zombieId",
          "type": "uint256"
        }
      ],
      "name": "levelUp",
      "outputs": [],
      "stateMutability": "payable",
      "type": "function",
      "payable": true
    },
    {
      "inputs": [],
      "name": "name",
      "outputs": [
        {
          "internalType": "string",
          "name": "",
          "type": "string"
        }
      ],
      "stateMutability": "view",
      "type": "function",
      "constant": true
    },
    {
      "inputs": [],
      "name": "owner",
      "outputs": [
        {
          "internalType": "address",
          "name": "",
          "type": "address"
        }
      ],
      "stateMutability": "view",
      "type": "function",
      "constant": true
    },
    {
      "inputs": [],
      "name": "renounceOwnership",
      "outputs": [],
      "stateMutability": "nonpayable",
      "type": "function"
    },
    {
      "inputs": [
        {
          "internalType": "address",
          "name": "from",
          "type": "address"
        },
        {
          "internalType": "address",
          "name": "to",
          "type": "address"
        },
        {
          "internalType": "uint256",
          "name": "tokenId",
          "type": "uint256"
        }
      ],
      "name": "safeTransferFrom",
      "outputs": [],
      "stateMutability": "nonpayable",
      "type": "function"
    },
    {
      "inputs": [
        {
          "internalType": "address",
          "name": "from",
          "type": "address"
        },
        {
          "internalType": "address",
          "name": "to",
          "type": "address"
        },
        {
          "internalType": "uint256",
          "name": "tokenId",
          "type": "uint256"
        },
        {
          "internalType": "bytes",
          "name": "_data",
          "type": "bytes"
        }
      ],
      "name": "safeTransferFrom",
      "outputs": [],
      "stateMutability": "nonpayable",
      "type": "function"
    },
    {
      "inputs": [
        {
          "internalType": "address",
          "name": "operator",
          "type": "address"
        },
        {
          "internalType": "bool",
          "name": "approved",
          "type": "bool"
        }
      ],
      "name": "setApprovalForAll",
      "outputs": [],
      "stateMutability": "nonpayable",
      "type": "function"
    },
    {
      "inputs": [
        {
          "internalType": "address",
          "name": "_address",
          "type": "address"
        }
      ],
      "name": "setKittyContractAddress",
      "outputs": [],
      "stateMutability": "nonpayable",
      "type": "function"
    },
    {
      "inputs": [
        {
          "internalType": "uint256",
          "name": "_fee",
          "type": "uint256"
        }
      ],
      "name": "setLevelUpFee",
      "outputs": [],
      "stateMutability": "nonpayable",
      "type": "function"
    },
    {
      "inputs": [
        {
          "internalType": "bytes4",
          "name": "interfaceId",
          "type": "bytes4"
        }
      ],
      "name": "supportsInterface",
      "outputs": [
        {
          "internalType": "bool",
          "name": "",
          "type": "bool"
        }
      ],
      "stateMutability": "view",
      "type": "function",
      "constant": true
    },
    {
      "inputs": [],
      "name": "symbol",
      "outputs": [
        {
          "internalType": "string",
          "name": "",
          "type": "string"
        }
      ],
      "stateMutability": "view",
      "type": "function",
      "constant": true
    },
    {
      "inputs": [
        {
          "internalType": "uint256",
          "name": "tokenId",
          "type": "uint256"
        }
      ],
      "name": "tokenURI",
      "outputs": [
        {
          "internalType": "string",
          "name": "",
          "type": "string"
        }
      ],
      "stateMutability": "view",
      "type": "function",
      "constant": true
    },
    {
      "inputs": [
        {
          "internalType": "address",
          "name": "from",
          "type": "address"
        },
        {
          "internalType": "address",
          "name": "to",
          "type": "address"
        },
        {
          "internalType": "uint256",
          "name": "tokenId",
          "type": "uint256"
        }
      ],
      "name": "transferFrom",
      "outputs": [],
      "stateMutability": "nonpayable",
      "type": "function"
    },
    {
      "inputs": [
        {
          "internalType": "address",
          "name": "newOwner",
          "type": "address"
        }
      ],
      "name": "transferOwnership",
      "outputs": [],
      "stateMutability": "nonpayable",
      "type": "function"
    },
    {
      "inputs": [
        {
          "internalType": "uint256",
          "name": "",
          "type": "uint256"
        }
      ],
      "name": "zombieToOwner",
      "outputs": [
        {
          "internalType": "address",
          "name": "",
          "type": "address"
        }
      ],
      "stateMutability": "view",
      "type": "function",
      "constant": true
    },
    {
      "inputs": [
        {
          "internalType": "uint256",
          "name": "",
          "type": "uint256"
        }
      ],
      "name": "zombies",
      "outputs": [
        {
          "internalType": "string",
          "name": "name",
          "type": "string"
        },
        {
          "internalType": "uint256",
          "name": "dna",
          "type": "uint256"
        },
        {
          "internalType": "uint32",
          "name": "level",
          "type": "uint32"
        },
        {
          "internalType": "uint32",
          "name": "readyTime",
          "type": "uint32"
        },
        {
          "internalType": "uint16",
          "name": "winCount",
          "type": "uint16"
        },
        {
          "internalType": "uint16",
          "name": "lossCount",
          "type": "uint16"
        }
      ],
      "stateMutability": "view",
      "type": "function",
      "constant": true
    },
    {
      "inputs": [
        {
          "internalType": "address",
          "name": "_owner",
          "type": "address"
        }
      ],
      "name": "balanceOf",
      "outputs": [
        {
          "internalType": "uint256",
          "name": "_balance",
          "type": "uint256"
        }
      ],
      "stateMutability": "view",
      "type": "function",
      "constant": true
    },
    {
      "inputs": [
        {
          "internalType": "uint256",
          "name": "_tokenId",
          "type": "uint256"
        }
      ],
      "name": "ownerOf",
      "outputs": [
        {
          "internalType": "address",
          "name": "_owner",
          "type": "address"
        }
      ],
      "stateMutability": "view",
      "type": "function",
      "constant": true
    },
    {
      "inputs": [
        {
          "internalType": "address",
          "name": "_to",
          "type": "address"
        },
        {
          "internalType": "uint256",
          "name": "_tokenId",
          "type": "uint256"
        }
      ],
      "name": "transfer",
      "outputs": [],
      "stateMutability": "nonpayable",
      "type": "function"
    },
    {
      "inputs": [
        {
          "internalType": "address",
          "name": "_to",
          "type": "address"
        },
        {
          "internalType": "uint256",
          "name": "_tokenId",
          "type": "uint256"
        }
      ],
      "name": "approve",
      "outputs": [],
      "stateMutability": "nonpayable",
      "type": "function"
    },
    {
      "inputs": [
        {
          "internalType": "uint256",
          "name": "_tokenId",
          "type": "uint256"
        }
      ],
      "name": "takeOwnership",
      "outputs": [],
      "stateMutability": "nonpayable",
      "type": "function"
    }
  ],
  "bytecode": "0x60806040526010600155600154600a6200001a9190620002e4565b6002556201518060035566038d7ea4c6800060085560006009556046600a553480156200004657600080fd5b506040518060400160405280600881526020017f47616d654974656d0000000000000000000000000000000000000000000000008152506040518060400160405280600381526020017f49544d0000000000000000000000000000000000000000000000000000000000815250620000d3620000c76200010d60201b60201c565b6200011560201b60201c565b81600b9080519060200190620000eb929190620001d9565b5080600c908051906020019062000104929190620001d9565b505050620004cc565b600033905090565b60008060009054906101000a900473ffffffffffffffffffffffffffffffffffffffff169050816000806101000a81548173ffffffffffffffffffffffffffffffffffffffff021916908373ffffffffffffffffffffffffffffffffffffffff1602179055508173ffffffffffffffffffffffffffffffffffffffff168173ffffffffffffffffffffffffffffffffffffffff167f8be0079c531659141344cd1fd0a4f28419497f9722a3daafe3b4186f6b6457e060405160405180910390a35050565b828054620001e7906200042b565b90600052602060002090601f0160209004810192826200020b576000855562000257565b82601f106200022657805160ff191683800117855562000257565b8280016001018555821562000257579182015b828111156200025657825182559160200191906001019062000239565b5b5090506200026691906200026a565b5090565b5b80821115620002855760008160009055506001016200026b565b5090565b6000808291508390505b6001851115620002db57808604811115620002b357620002b262000461565b5b6001851615620002c35780820291505b8081029050620002d385620004bf565b945062000293565b94509492505050565b6000620002f18262000421565b9150620002fe8362000421565b92506200032d7fffffffffffffffffffffffffffffffffffffffffffffffffffffffffffffffff848462000335565b905092915050565b6000826200034757600190506200041a565b816200035757600090506200041a565b81600181146200037057600281146200037b57620003b1565b60019150506200041a565b60ff84111562000390576200038f62000461565b5b8360020a915084821115620003aa57620003a962000461565b5b506200041a565b5060208310610133831016604e8410600b8410161715620003eb5782820a905083811115620003e557620003e462000461565b5b6200041a565b620003fa848484600162000289565b9250905081840481111562000414576200041362000461565b5b81810290505b9392505050565b6000819050919050565b600060028204905060018216806200044457607f821691505b602082108114156200045b576200045a62000490565b5b50919050565b7f4e487b7100000000000000000000000000000000000000000000000000000000600052601160045260246000fd5b7f4e487b7100000000000000000000000000000000000000000000000000000000600052602260045260246000fd5b60008160011c9050919050565b613d2580620004dc6000396000f3fe6080604052600436106101c25760003560e01c806370a08231116100f7578063b2e6ceeb11610095578063ccf670f811610064578063ccf670f814610654578063e1fa76381461067d578063e985e9c5146106a6578063f2fde38b146106e3576101c2565b8063b2e6ceeb1461059c578063b88d4fde146105c5578063c39cbef1146105ee578063c87b56dd14610617576101c2565b80638da5cb5b116100d15780638da5cb5b146104f457806395d89b411461051f578063a22cb4651461054a578063a9059cbb14610573576101c2565b806370a0823114610477578063715018a6146104b45780637bff0a01146104cb576101c2565b806323b872dd11610164578063528b7b8f1161013e578063528b7b8f146103ab5780635f4623f1146103e85780635faf2880146104115780636352211e1461043a576101c2565b806323b872dd1461031c57806342842e0e146103455780634412e1041461036e576101c2565b8063095ea7b3116101a0578063095ea7b31461026c5780630ce90ec21461029557806317a7f4cc146102b15780632052465e146102da576101c2565b806301ffc9a7146101c757806306fdde0314610204578063081812fc1461022f575b600080fd5b3480156101d357600080fd5b506101ee60048036038101906101e99190612db6565b61070c565b6040516101fb91906132e8565b60405180910390f35b34801561021057600080fd5b506102196107ee565b6040516102269190613303565b60405180910390f35b34801561023b57600080fd5b5061025660048036038101906102519190612e59565b610880565b604051610263919061325f565b60405180910390f35b34801561027857600080fd5b50610293600480360381019061028e9190612c97565b610905565b005b6102af60048036038101906102aa9190612e59565b610a23565b005b3480156102bd57600080fd5b506102d860048036038101906102d39190612ee2565b610a98565b005b3480156102e657600080fd5b5061030160048036038101906102fc9190612e59565b610bc5565b60405161031396959493929190613325565b60405180910390f35b34801561032857600080fd5b50610343600480360381019061033e9190612b81565b610cd5565b005b34801561035157600080fd5b5061036c60048036038101906103679190612b81565b610d35565b005b34801561037a57600080fd5b5061039560048036038101906103909190612b14565b610d55565b6040516103a291906132c6565b60405180910390f35b3480156103b757600080fd5b506103d260048036038101906103cd9190612e59565b610ea8565b6040516103df919061325f565b60405180910390f35b3480156103f457600080fd5b5061040f600480360381019061040a9190612b14565b610edb565b005b34801561041d57600080fd5b5061043860048036038101906104339190612ee2565b610f9b565b005b34801561044657600080fd5b50610461600480360381019061045c9190612e59565b611083565b60405161046e919061325f565b60405180910390f35b34801561048357600080fd5b5061049e60048036038101906104999190612b14565b6110c0565b6040516104ab91906134ad565b60405180910390f35b3480156104c057600080fd5b506104c9611109565b005b3480156104d757600080fd5b506104f260048036038101906104ed9190612e10565b611191565b005b34801561050057600080fd5b50610509611212565b604051610516919061325f565b60405180910390f35b34801561052b57600080fd5b5061053461123b565b6040516105419190613303565b60405180910390f35b34801561055657600080fd5b50610571600480360381019061056c9190612c57565b6112cd565b005b34801561057f57600080fd5b5061059a60048036038101906105959190612c97565b61144e565b005b3480156105a857600080fd5b506105c360048036038101906105be9190612e59565b6114ca565b005b3480156105d157600080fd5b506105ec60048036038101906105e79190612bd4565b611551565b005b3480156105fa57600080fd5b5061061560048036038101906106109190612e86565b6115b3565b005b34801561062357600080fd5b5061063e60048036038101906106399190612e59565b6116ab565b60405161064b9190613303565b60405180910390f35b34801561066057600080fd5b5061067b60048036038101906106769190612e59565b611752565b005b34801561068957600080fd5b506106a4600480360381019061069f9190612ee2565b6117d8565b005b3480156106b257600080fd5b506106cd60048036038101906106c89190612b41565b611a39565b6040516106da91906132e8565b60405180910390f35b3480156106ef57600080fd5b5061070a60048036038101906107059190612b14565b611acd565b005b60007f80ac58cd000000000000000000000000000000000000000000000000000000007bffffffffffffffffffffffffffffffffffffffffffffffffffffffff1916827bffffffffffffffffffffffffffffffffffffffffffffffffffffffff191614806107d757507f5b5e139f000000000000000000000000000000000000000000000000000000007bffffffffffffffffffffffffffffffffffffffffffffffffffffffff1916827bffffffffffffffffffffffffffffffffffffffffffffffffffffffff1916145b806107e757506107e682611bc5565b5b9050919050565b6060600b80546107fd90613798565b80601f016020809104026020016040519081016040528092919081815260200182805461082990613798565b80156108765780601f1061084b57610100808354040283529160200191610876565b820191906000526020600020905b81548152906001019060200180831161085957829003601f168201915b5050505050905090565b600061088b82611c2f565b6108ca576040517f08c379a00000000000000000000000000000000000000000000000000000000081526004016108c19061342d565b60405180910390fd5b600f600083815260200190815260200160002060009054906101000a900473ffffffffffffffffffffffffffffffffffffffff169050919050565b806005600082815260200190815260200160002060009054906101000a900473ffffffffffffffffffffffffffffffffffffffff1673ffffffffffffffffffffffffffffffffffffffff163373ffffffffffffffffffffffffffffffffffffffff161461097157600080fd5b826011600084815260200190815260200160002060006101000a81548173ffffffffffffffffffffffffffffffffffffffff021916908373ffffffffffffffffffffffffffffffffffffffff160217905550818373ffffffffffffffffffffffffffffffffffffffff163373ffffffffffffffffffffffffffffffffffffffff167f8c5be1e5ebec7d5bd14f71427d1e84f3dd0314c0f7b2291e5b200ac8c7c3b92560405160405180910390a4505050565b6008543414610a3157600080fd5b60048181548110610a4557610a44613988565b5b9060005260206000209060030201600201600081819054906101000a900463ffffffff1680929190610a769061386f565b91906101000a81548163ffffffff021916908363ffffffff1602179055505050565b6000600760009054906101000a900473ffffffffffffffffffffffffffffffffffffffff1673ffffffffffffffffffffffffffffffffffffffff1663e98b7f4d836040518263ffffffff1660e01b8152600401610af591906134ad565b6101406040518083038186803b158015610b0e57600080fd5b505afa158015610b22573d6000803e3d6000fd5b505050506040513d601f19601f82011682018060405250810190610b469190612cd7565b90919293949596979850909192939495969750909192939495965090919293949550909192939450909192935090919250909150905080915050610bc083826040518060400160405280600581526020017f6b69747479000000000000000000000000000000000000000000000000000000815250611c9b565b505050565b60048181548110610bd557600080fd5b9060005260206000209060030201600091509050806000018054610bf890613798565b80601f0160208091040260200160405190810160405280929190818152602001828054610c2490613798565b8015610c715780601f10610c4657610100808354040283529160200191610c71565b820191906000526020600020905b815481529060010190602001808311610c5457829003601f168201915b5050505050908060010154908060020160009054906101000a900463ffffffff16908060020160049054906101000a900463ffffffff16908060020160089054906101000a900461ffff169080600201600a9054906101000a900461ffff16905086565b610ce6610ce0611e15565b82611e1d565b610d25576040517f08c379a0000000000000000000000000000000000000000000000000000000008152600401610d1c9061348d565b60405180910390fd5b610d30838383611efb565b505050565b610d5083838360405180602001604052806000815250611551565b505050565b60606000600660008473ffffffffffffffffffffffffffffffffffffffff1673ffffffffffffffffffffffffffffffffffffffff1681526020019081526020016000205467ffffffffffffffff811115610db257610db16139b7565b5b604051908082528060200260200182016040528015610de05781602001602082028036833780820191505090505b5090506000805b600480549050811015610e9d578473ffffffffffffffffffffffffffffffffffffffff166005600083815260200190815260200160002060009054906101000a900473ffffffffffffffffffffffffffffffffffffffff1673ffffffffffffffffffffffffffffffffffffffff161415610e8a5780838381518110610e6f57610e6e613988565b5b6020026020010181815250508180610e8690613826565b9250505b8080610e9590613826565b915050610de7565b508192505050919050565b60056020528060005260406000206000915054906101000a900473ffffffffffffffffffffffffffffffffffffffff1681565b610ee3611e15565b73ffffffffffffffffffffffffffffffffffffffff16610f01611212565b73ffffffffffffffffffffffffffffffffffffffff1614610f57576040517f08c379a0000000000000000000000000000000000000000000000000000000008152600401610f4e9061344d565b60405180910390fd5b80600760006101000a81548173ffffffffffffffffffffffffffffffffffffffff021916908373ffffffffffffffffffffffffffffffffffffffff16021790555050565b6014828160048281548110610fb357610fb2613988565b5b906000526020600020906003020160020160009054906101000a900463ffffffff1663ffffffff161015610fe657600080fd5b836005600082815260200190815260200160002060009054906101000a900473ffffffffffffffffffffffffffffffffffffffff1673ffffffffffffffffffffffffffffffffffffffff163373ffffffffffffffffffffffffffffffffffffffff161461105257600080fd5b836004868154811061106757611066613988565b5b9060005260206000209060030201600101819055505050505050565b60006005600083815260200190815260200160002060009054906101000a900473ffffffffffffffffffffffffffffffffffffffff169050919050565b6000600660008373ffffffffffffffffffffffffffffffffffffffff1673ffffffffffffffffffffffffffffffffffffffff168152602001908152602001600020549050919050565b611111611e15565b73ffffffffffffffffffffffffffffffffffffffff1661112f611212565b73ffffffffffffffffffffffffffffffffffffffff1614611185576040517f08c379a000000000000000000000000000000000000000000000000000000000815260040161117c9061344d565b60405180910390fd5b61118f60006120d9565b565b6000600660003373ffffffffffffffffffffffffffffffffffffffff1673ffffffffffffffffffffffffffffffffffffffff16815260200190815260200160002054146111dd57600080fd5b60006111e88261219d565b90506064816111f791906138ca565b816112029190613690565b905061120e82826121c3565b5050565b60008060009054906101000a900473ffffffffffffffffffffffffffffffffffffffff16905090565b6060600c805461124a90613798565b80601f016020809104026020016040519081016040528092919081815260200182805461127690613798565b80156112c35780601f10611298576101008083540402835291602001916112c3565b820191906000526020600020905b8154815290600101906020018083116112a657829003601f168201915b5050505050905090565b6112d5611e15565b73ffffffffffffffffffffffffffffffffffffffff168273ffffffffffffffffffffffffffffffffffffffff161415611343576040517f08c379a000000000000000000000000000000000000000000000000000000000815260040161133a906133cd565b60405180910390fd5b8060106000611350611e15565b73ffffffffffffffffffffffffffffffffffffffff1673ffffffffffffffffffffffffffffffffffffffff16815260200190815260200160002060008473ffffffffffffffffffffffffffffffffffffffff1673ffffffffffffffffffffffffffffffffffffffff16815260200190815260200160002060006101000a81548160ff0219169083151502179055508173ffffffffffffffffffffffffffffffffffffffff166113fd611e15565b73ffffffffffffffffffffffffffffffffffffffff167f17307eab39ab6107e8899845ad3d59bd9653f200f220920489ca2b5937696c318360405161144291906132e8565b60405180910390a35050565b806005600082815260200190815260200160002060009054906101000a900473ffffffffffffffffffffffffffffffffffffffff1673ffffffffffffffffffffffffffffffffffffffff163373ffffffffffffffffffffffffffffffffffffffff16146114ba57600080fd5b6114c5338484611efb565b505050565b3373ffffffffffffffffffffffffffffffffffffffff166011600083815260200190815260200160002060009054906101000a900473ffffffffffffffffffffffffffffffffffffffff1673ffffffffffffffffffffffffffffffffffffffff161461153557600080fd5b600061154082611083565b905061154d813384611efb565b5050565b61156261155c611e15565b83611e1d565b6115a1576040517f08c379a00000000000000000000000000000000000000000000000000000000081526004016115989061348d565b60405180910390fd5b6115ad848484846123ec565b50505050565b60028281600482815481106115cb576115ca613988565b5b906000526020600020906003020160020160009054906101000a900463ffffffff1663ffffffff1610156115fe57600080fd5b836005600082815260200190815260200160002060009054906101000a900473ffffffffffffffffffffffffffffffffffffffff1673ffffffffffffffffffffffffffffffffffffffff163373ffffffffffffffffffffffffffffffffffffffff161461166a57600080fd5b836004868154811061167f5761167e613988565b5b906000526020600020906003020160000190805190602001906116a39291906128fe565b505050505050565b60606116b682611c2f565b6116f5576040517f08c379a00000000000000000000000000000000000000000000000000000000081526004016116ec9061346d565b60405180910390fd5b60006116ff612448565b9050600081511161171f576040518060200160405280600081525061174a565b806117298461245f565b60405160200161173a9291906131fe565b6040516020818303038152906040525b915050919050565b61175a611e15565b73ffffffffffffffffffffffffffffffffffffffff16611778611212565b73ffffffffffffffffffffffffffffffffffffffff16146117ce576040517f08c379a00000000000000000000000000000000000000000000000000000000081526004016117c59061344d565b60405180910390fd5b8060088190555050565b816005600082815260200190815260200160002060009054906101000a900473ffffffffffffffffffffffffffffffffffffffff1673ffffffffffffffffffffffffffffffffffffffff163373ffffffffffffffffffffffffffffffffffffffff161461184457600080fd5b60006004848154811061185a57611859613988565b5b906000526020600020906003020190506000600484815481106118805761187f613988565b5b90600052602060002090600302019050600061189c60646125c0565b9050600a5481116119ad5782600201600881819054906101000a900461ffff16809291906118c9906137fb565b91906101000a81548161ffff021916908361ffff1602179055505082600201600081819054906101000a900463ffffffff16809291906119089061386f565b91906101000a81548163ffffffff021916908363ffffffff1602179055505081600201600a81819054906101000a900461ffff1680929190611949906137fb565b91906101000a81548161ffff021916908361ffff160217905550506119a88683600101546040518060400160405280600681526020017f7a6f6d6269650000000000000000000000000000000000000000000000000000815250611c9b565b611a31565b82600201600a81819054906101000a900461ffff16809291906119cf906137fb565b91906101000a81548161ffff021916908361ffff1602179055505081600201600881819054906101000a900461ffff1680929190611a0c906137fb565b91906101000a81548161ffff021916908361ffff16021790555050611a308361261c565b5b505050505050565b6000601060008473ffffffffffffffffffffffffffffffffffffffff1673ffffffffffffffffffffffffffffffffffffffff16815260200190815260200160002060008373ffffffffffffffffffffffffffffffffffffffff1673ffffffffffffffffffffffffffffffffffffffff16815260200190815260200160002060009054906101000a900460ff16905092915050565b611ad5611e15565b73ffffffffffffffffffffffffffffffffffffffff16611af3611212565b73ffffffffffffffffffffffffffffffffffffffff1614611b49576040517f08c379a0000000000000000000000000000000000000000000000000000000008152600401611b409061344d565b60405180910390fd5b600073ffffffffffffffffffffffffffffffffffffffff168173ffffffffffffffffffffffffffffffffffffffff161415611bb9576040517f08c379a0000000000000000000000000000000000000000000000000000000008152600401611bb0906133ad565b60405180910390fd5b611bc2816120d9565b50565b60007f01ffc9a7000000000000000000000000000000000000000000000000000000007bffffffffffffffffffffffffffffffffffffffffffffffffffffffff1916827bffffffffffffffffffffffffffffffffffffffffffffffffffffffff1916149050919050565b60008073ffffffffffffffffffffffffffffffffffffffff16600d600084815260200190815260200160002060009054906101000a900473ffffffffffffffffffffffffffffffffffffffff1673ffffffffffffffffffffffffffffffffffffffff1614159050919050565b826005600082815260200190815260200160002060009054906101000a900473ffffffffffffffffffffffffffffffffffffffff1673ffffffffffffffffffffffffffffffffffffffff163373ffffffffffffffffffffffffffffffffffffffff1614611d0757600080fd5b600060048581548110611d1d57611d1c613988565b5b90600052602060002090600302019050611d368161264f565b611d3f57600080fd5b60025484611d4d91906138ca565b935060006002858360010154611d639190613609565b611d6d919061365f565b90507f8d53323b21b9f304546f6d3e61cde865451064d614aa4912f395b755a9d8cad984805190602001201415611dc5576063606482611dad91906138ca565b82611db89190613690565b611dc29190613609565b90505b611e046040518060400160405280600681526020017f4e6f4e616d650000000000000000000000000000000000000000000000000000815250826121c3565b611e0d8261261c565b505050505050565b600033905090565b6000611e2882611c2f565b611e67576040517f08c379a0000000000000000000000000000000000000000000000000000000008152600401611e5e906133ed565b60405180910390fd5b6000611e7283612676565b90508073ffffffffffffffffffffffffffffffffffffffff168473ffffffffffffffffffffffffffffffffffffffff161480611ee157508373ffffffffffffffffffffffffffffffffffffffff16611ec984610880565b73ffffffffffffffffffffffffffffffffffffffff16145b80611ef25750611ef18185611a39565b5b91505092915050565b611f4e6001600660008573ffffffffffffffffffffffffffffffffffffffff1673ffffffffffffffffffffffffffffffffffffffff1681526020019081526020016000205461272890919063ffffffff16565b600660008473ffffffffffffffffffffffffffffffffffffffff1673ffffffffffffffffffffffffffffffffffffffff16815260200190815260200160002081905550611fe46001600660003373ffffffffffffffffffffffffffffffffffffffff1673ffffffffffffffffffffffffffffffffffffffff1681526020019081526020016000205461273e90919063ffffffff16565b600660003373ffffffffffffffffffffffffffffffffffffffff1673ffffffffffffffffffffffffffffffffffffffff16815260200190815260200160002081905550816005600083815260200190815260200160002060006101000a81548173ffffffffffffffffffffffffffffffffffffffff021916908373ffffffffffffffffffffffffffffffffffffffff160217905550808273ffffffffffffffffffffffffffffffffffffffff168473ffffffffffffffffffffffffffffffffffffffff167fddf252ad1be2c89b69c2b068fc378daa952ba7f163c4a11628f55a4df523b3ef60405160405180910390a4505050565b60008060009054906101000a900473ffffffffffffffffffffffffffffffffffffffff169050816000806101000a81548173ffffffffffffffffffffffffffffffffffffffff021916908373ffffffffffffffffffffffffffffffffffffffff1602179055508173ffffffffffffffffffffffffffffffffffffffff168173ffffffffffffffffffffffffffffffffffffffff167f8be0079c531659141344cd1fd0a4f28419497f9722a3daafe3b4186f6b6457e060405160405180910390a35050565b600080828051906020012060001c9050600254816121bb91906138ca565b915050919050565b60046040518060c00160405280848152602001838152602001600163ffffffff168152602001600354426121f79190613609565b63ffffffff168152602001600061ffff168152602001600061ffff168152509080600181540180825580915050600190039060005260206000209060030201600090919091909150600082015181600001908051906020019061225b9291906128fe565b506020820151816001015560408201518160020160006101000a81548163ffffffff021916908363ffffffff16021790555060608201518160020160046101000a81548163ffffffff021916908363ffffffff16021790555060808201518160020160086101000a81548161ffff021916908361ffff16021790555060a082015181600201600a6101000a81548161ffff021916908361ffff16021790555050503360056000600480549050815260200190815260200160002060006101000a81548173ffffffffffffffffffffffffffffffffffffffff021916908373ffffffffffffffffffffffffffffffffffffffff160217905550600660003373ffffffffffffffffffffffffffffffffffffffff1673ffffffffffffffffffffffffffffffffffffffff16815260200190815260200160002060008154809291906123a390613826565b91905055507f88f026aacbbecc90c18411df4b1185fd8d9be2470f1962f192bf84a27d0704b760048054905083836040516123e0939291906134c8565b60405180910390a15050565b6123f7848484611efb565b61240384848484612754565b612442576040517f08c379a00000000000000000000000000000000000000000000000000000000081526004016124399061338d565b60405180910390fd5b50505050565b606060405180602001604052806000815250905090565b606060008214156124a7576040518060400160405280600181526020017f300000000000000000000000000000000000000000000000000000000000000081525090506125bb565b600082905060005b600082146124d95780806124c290613826565b915050600a826124d2919061365f565b91506124af565b60008167ffffffffffffffff8111156124f5576124f46139b7565b5b6040519080825280601f01601f1916602001820160405280156125275781602001600182028036833780820191505090505b5090505b600085146125b4576001826125409190613690565b9150600a8561254f91906138ca565b603061255b9190613609565b60f81b81838151811061257157612570613988565b5b60200101907effffffffffffffffffffffffffffffffffffffffffffffffffffffffffffff1916908160001a905350600a856125ad919061365f565b945061252b565b8093505050505b919050565b6000600960008154809291906125d590613826565b91905055508142336009546040516020016125f293929190613222565b6040516020818303038152906040528051906020012060001c61261591906138ca565b9050919050565b6003544261262a9190613609565b8160020160046101000a81548163ffffffff021916908363ffffffff16021790555050565b6000428260020160049054906101000a900463ffffffff1663ffffffff1611159050919050565b600080600d600084815260200190815260200160002060009054906101000a900473ffffffffffffffffffffffffffffffffffffffff169050600073ffffffffffffffffffffffffffffffffffffffff168173ffffffffffffffffffffffffffffffffffffffff16141561271f576040517f08c379a00000000000000000000000000000000000000000000000000000000081526004016127169061340d565b60405180910390fd5b80915050919050565b600081836127369190613609565b905092915050565b6000818361274c9190613690565b905092915050565b60006127758473ffffffffffffffffffffffffffffffffffffffff166128eb565b156128de578373ffffffffffffffffffffffffffffffffffffffff1663150b7a0261279e611e15565b8786866040518563ffffffff1660e01b81526004016127c0949392919061327a565b602060405180830381600087803b1580156127da57600080fd5b505af192505050801561280b57506040513d601f19601f820116820180604052508101906128089190612de3565b60015b61288e573d806000811461283b576040519150601f19603f3d011682016040523d82523d6000602084013e612840565b606091505b50600081511415612886576040517f08c379a000000000000000000000000000000000000000000000000000000000815260040161287d9061338d565b60405180910390fd5b805181602001fd5b63150b7a0260e01b7bffffffffffffffffffffffffffffffffffffffffffffffffffffffff1916817bffffffffffffffffffffffffffffffffffffffffffffffffffffffff1916149150506128e3565b600190505b949350505050565b600080823b905060008111915050919050565b82805461290a90613798565b90600052602060002090601f01602090048101928261292c5760008555612973565b82601f1061294557805160ff1916838001178555612973565b82800160010185558215612973579182015b82811115612972578251825591602001919060010190612957565b5b5090506129809190612984565b5090565b5b8082111561299d576000816000905550600101612985565b5090565b60006129b46129af8461352b565b613506565b9050828152602081018484840111156129d0576129cf6139eb565b5b6129db848285613756565b509392505050565b60006129f66129f18461355c565b613506565b905082815260208101848484011115612a1257612a116139eb565b5b612a1d848285613756565b509392505050565b600081359050612a3481613c93565b92915050565b600081359050612a4981613caa565b92915050565b600081519050612a5e81613caa565b92915050565b600081359050612a7381613cc1565b92915050565b600081519050612a8881613cc1565b92915050565b600082601f830112612aa357612aa26139e6565b5b8135612ab38482602086016129a1565b91505092915050565b600082601f830112612ad157612ad06139e6565b5b8135612ae18482602086016129e3565b91505092915050565b600081359050612af981613cd8565b92915050565b600081519050612b0e81613cd8565b92915050565b600060208284031215612b2a57612b296139f5565b5b6000612b3884828501612a25565b91505092915050565b60008060408385031215612b5857612b576139f5565b5b6000612b6685828601612a25565b9250506020612b7785828601612a25565b9150509250929050565b600080600060608486031215612b9a57612b996139f5565b5b6000612ba886828701612a25565b9350506020612bb986828701612a25565b9250506040612bca86828701612aea565b9150509250925092565b60008060008060808587031215612bee57612bed6139f5565b5b6000612bfc87828801612a25565b9450506020612c0d87828801612a25565b9350506040612c1e87828801612aea565b925050606085013567ffffffffffffffff811115612c3f57612c3e6139f0565b5b612c4b87828801612a8e565b91505092959194509250565b60008060408385031215612c6e57612c6d6139f5565b5b6000612c7c85828601612a25565b9250506020612c8d85828601612a3a565b9150509250929050565b60008060408385031215612cae57612cad6139f5565b5b6000612cbc85828601612a25565b9250506020612ccd85828601612aea565b9150509250929050565b6000806000806000806000806000806101408b8d031215612cfb57612cfa6139f5565b5b6000612d098d828e01612a4f565b9a50506020612d1a8d828e01612a4f565b9950506040612d2b8d828e01612aff565b9850506060612d3c8d828e01612aff565b9750506080612d4d8d828e01612aff565b96505060a0612d5e8d828e01612aff565b95505060c0612d6f8d828e01612aff565b94505060e0612d808d828e01612aff565b935050610100612d928d828e01612aff565b925050610120612da48d828e01612aff565b9150509295989b9194979a5092959850565b600060208284031215612dcc57612dcb6139f5565b5b6000612dda84828501612a64565b91505092915050565b600060208284031215612df957612df86139f5565b5b6000612e0784828501612a79565b91505092915050565b600060208284031215612e2657612e256139f5565b5b600082013567ffffffffffffffff811115612e4457612e436139f0565b5b612e5084828501612abc565b91505092915050565b600060208284031215612e6f57612e6e6139f5565b5b6000612e7d84828501612aea565b91505092915050565b60008060408385031215612e9d57612e9c6139f5565b5b6000612eab85828601612aea565b925050602083013567ffffffffffffffff811115612ecc57612ecb6139f0565b5b612ed885828601612abc565b9150509250929050565b60008060408385031215612ef957612ef86139f5565b5b6000612f0785828601612aea565b9250506020612f1885828601612aea565b9150509250929050565b6000612f2e83836131ba565b60208301905092915050565b612f43816136c4565b82525050565b612f5a612f55826136c4565b61389c565b82525050565b6000612f6b8261359d565b612f7581856135cb565b9350612f808361358d565b8060005b83811015612fb1578151612f988882612f22565b9750612fa3836135be565b925050600181019050612f84565b5085935050505092915050565b612fc7816136d6565b82525050565b6000612fd8826135a8565b612fe281856135dc565b9350612ff2818560208601613765565b612ffb816139fa565b840191505092915050565b6000613011826135b3565b61301b81856135ed565b935061302b818560208601613765565b613034816139fa565b840191505092915050565b600061304a826135b3565b61305481856135fe565b9350613064818560208601613765565b80840191505092915050565b600061307d6032836135ed565b915061308882613a18565b604082019050919050565b60006130a06026836135ed565b91506130ab82613a67565b604082019050919050565b60006130c36019836135ed565b91506130ce82613ab6565b602082019050919050565b60006130e6602c836135ed565b91506130f182613adf565b604082019050919050565b60006131096029836135ed565b915061311482613b2e565b604082019050919050565b600061312c602c836135ed565b915061313782613b7d565b604082019050919050565b600061314f6020836135ed565b915061315a82613bcc565b602082019050919050565b6000613172602f836135ed565b915061317d82613bf5565b604082019050919050565b60006131956031836135ed565b91506131a082613c44565b604082019050919050565b6131b48161370e565b82525050565b6131c38161373c565b82525050565b6131d28161373c565b82525050565b6131e96131e48261373c565b6138c0565b82525050565b6131f881613746565b82525050565b600061320a828561303f565b9150613216828461303f565b91508190509392505050565b600061322e82866131d8565b60208201915061323e8285612f49565b60148201915061324e82846131d8565b602082019150819050949350505050565b60006020820190506132746000830184612f3a565b92915050565b600060808201905061328f6000830187612f3a565b61329c6020830186612f3a565b6132a960408301856131c9565b81810360608301526132bb8184612fcd565b905095945050505050565b600060208201905081810360008301526132e08184612f60565b905092915050565b60006020820190506132fd6000830184612fbe565b92915050565b6000602082019050818103600083015261331d8184613006565b905092915050565b600060c082019050818103600083015261333f8189613006565b905061334e60208301886131c9565b61335b60408301876131ef565b61336860608301866131ef565b61337560808301856131ab565b61338260a08301846131ab565b979650505050505050565b600060208201905081810360008301526133a681613070565b9050919050565b600060208201905081810360008301526133c681613093565b9050919050565b600060208201905081810360008301526133e6816130b6565b9050919050565b60006020820190508181036000830152613406816130d9565b9050919050565b60006020820190508181036000830152613426816130fc565b9050919050565b600060208201905081810360008301526134468161311f565b9050919050565b6000602082019050818103600083015261346681613142565b9050919050565b6000602082019050818103600083015261348681613165565b9050919050565b600060208201905081810360008301526134a681613188565b9050919050565b60006020820190506134c260008301846131c9565b92915050565b60006060820190506134dd60008301866131c9565b81810360208301526134ef8185613006565b90506134fe60408301846131c9565b949350505050565b6000613510613521565b905061351c82826137ca565b919050565b6000604051905090565b600067ffffffffffffffff821115613546576135456139b7565b5b61354f826139fa565b9050602081019050919050565b600067ffffffffffffffff821115613577576135766139b7565b5b613580826139fa565b9050602081019050919050565b6000819050602082019050919050565b600081519050919050565b600081519050919050565b600081519050919050565b6000602082019050919050565b600082825260208201905092915050565b600082825260208201905092915050565b600082825260208201905092915050565b600081905092915050565b60006136148261373c565b915061361f8361373c565b9250827fffffffffffffffffffffffffffffffffffffffffffffffffffffffffffffffff03821115613654576136536138fb565b5b828201905092915050565b600061366a8261373c565b91506136758361373c565b9250826136855761368461392a565b5b828204905092915050565b600061369b8261373c565b91506136a68361373c565b9250828210156136b9576136b86138fb565b5b828203905092915050565b60006136cf8261371c565b9050919050565b60008115159050919050565b60007fffffffff0000000000000000000000000000000000000000000000000000000082169050919050565b600061ffff82169050919050565b600073ffffffffffffffffffffffffffffffffffffffff82169050919050565b6000819050919050565b600063ffffffff82169050919050565b82818337600083830152505050565b60005b83811015613783578082015181840152602081019050613768565b83811115613792576000848401525b50505050565b600060028204905060018216806137b057607f821691505b602082108114156137c4576137c3613959565b5b50919050565b6137d3826139fa565b810181811067ffffffffffffffff821117156137f2576137f16139b7565b5b80604052505050565b60006138068261370e565b915061ffff82141561381b5761381a6138fb565b5b600182019050919050565b60006138318261373c565b91507fffffffffffffffffffffffffffffffffffffffffffffffffffffffffffffffff821415613864576138636138fb565b5b600182019050919050565b600061387a82613746565b915063ffffffff821415613891576138906138fb565b5b600182019050919050565b60006138a7826138ae565b9050919050565b60006138b982613a0b565b9050919050565b6000819050919050565b60006138d58261373c565b91506138e08361373c565b9250826138f0576138ef61392a565b5b828206905092915050565b7f4e487b7100000000000000000000000000000000000000000000000000000000600052601160045260246000fd5b7f4e487b7100000000000000000000000000000000000000000000000000000000600052601260045260246000fd5b7f4e487b7100000000000000000000000000000000000000000000000000000000600052602260045260246000fd5b7f4e487b7100000000000000000000000000000000000000000000000000000000600052603260045260246000fd5b7f4e487b7100000000000000000000000000000000000000000000000000000000600052604160045260246000fd5b600080fd5b600080fd5b600080fd5b600080fd5b6000601f19601f8301169050919050565b60008160601b9050919050565b7f4552433732313a207472616e7366657220746f206e6f6e20455243373231526560008201527f63656976657220696d706c656d656e7465720000000000000000000000000000602082015250565b7f4f776e61626c653a206e6577206f776e657220697320746865207a65726f206160008201527f6464726573730000000000000000000000000000000000000000000000000000602082015250565b7f4552433732313a20617070726f766520746f2063616c6c657200000000000000600082015250565b7f4552433732313a206f70657261746f7220717565727920666f72206e6f6e657860008201527f697374656e7420746f6b656e0000000000000000000000000000000000000000602082015250565b7f4552433732313a206f776e657220717565727920666f72206e6f6e657869737460008201527f656e7420746f6b656e0000000000000000000000000000000000000000000000602082015250565b7f4552433732313a20617070726f76656420717565727920666f72206e6f6e657860008201527f697374656e7420746f6b656e0000000000000000000000000000000000000000602082015250565b7f4f776e61626c653a2063616c6c6572206973206e6f7420746865206f776e6572600082015250565b7f4552433732314d657461646174613a2055524920717565727920666f72206e6f60008201527f6e6578697374656e7420746f6b656e0000000000000000000000000000000000602082015250565b7f4552433732313a207472616e736665722063616c6c6572206973206e6f74206f60008201527f776e6572206e6f7220617070726f766564000000000000000000000000000000602082015250565b613c9c816136c4565b8114613ca757600080fd5b50565b613cb3816136d6565b8114613cbe57600080fd5b50565b613cca816136e2565b8114613cd557600080fd5b50565b613ce18161373c565b8114613cec57600080fd5b5056fea2646970667358221220989b3d98ca7c306d4969f93c0dd8c9f0321b8e9fe8597ec966245a801b7406d464736f6c63430008050033",
  "immutableReferences": {},
  "source": "// SPDX-License-Identifier: MIT\r\npragma solidity >=0.6.19 <0.8.6;\r\nimport \"./ZombieAttack.sol\";\r\nimport \"@openzeppelin/contracts/token/ERC721/ERC721.sol\";  \r\nimport \"@openzeppelin/contracts/utils/math/safemath.sol\";\r\ncontract ZombieOwnership is ZombieAttack, ERC721 {\r\n  using SafeMath for uint256;\r\n  mapping (uint => address) zombieApprovals;\r\n   function balanceOf(address _owner) public override view  returns (uint256 _balance) {\r\n    return ownerZombieCount[_owner];\r\n  }\r\n   constructor() ERC721(\"GameItem\", \"ITM\") public { }\r\n   function ownerOf(uint256 _tokenId) public override view  returns (address _owner) {\r\n   return zombieToOwner[_tokenId];\r\n  }\r\n   function _transfer(address _from, address _to, uint256 _tokenId) override internal {\r\n    ownerZombieCount[_to] = ownerZombieCount[_to].add(1);\r\n    ownerZombieCount[msg.sender] = ownerZombieCount[msg.sender].sub(1);\r\n    zombieToOwner[_tokenId] = _to;\r\n   emit Transfer(_from, _to, _tokenId);\r\n  }\r\n   function transfer(address _to, uint256 _tokenId) public onlyOwnerOf(_tokenId) {\r\n    _transfer(msg.sender, _to, _tokenId);\r\n  }\r\n   function approve(address _to, uint256 _tokenId) public override onlyOwnerOf(_tokenId) {\r\n   zombieApprovals[_tokenId] = _to;\r\n    emit Approval(msg.sender, _to, _tokenId);\r\n  }\r\n   function takeOwnership(uint256 _tokenId) public {\r\n    require(zombieApprovals[_tokenId] == msg.sender);\r\n    address owner = ownerOf(_tokenId);\r\n   _transfer(owner, msg.sender, _tokenId);\r\n }\r\n\r\n}\r\n\r\n",
  "sourcePath": "C:/code/cryptodapp/contracts/ZombieOwnership.sol",
  "compiler": {
    "name": "solc",
    "version": "0.8.5+commit.a4f2e591.Emscripten.clang"
  },
  "schemaVersion": "3.4.1",
  "updatedAt": "2021-07-02T16:55:21.565Z",
  "networkType": "ethereum",
  "devdoc": {
    "kind": "dev",
    "methods": {
      "getApproved(uint256)": {
        "details": "See {IERC721-getApproved}."
      },
      "isApprovedForAll(address,address)": {
        "details": "See {IERC721-isApprovedForAll}."
      },
      "name()": {
        "details": "See {IERC721Metadata-name}."
      },
      "owner()": {
        "details": "Returns the address of the current owner."
      },
      "renounceOwnership()": {
        "details": "Leaves the contract without owner. It will not be possible to call `onlyOwner` functions anymore. Can only be called by the current owner. NOTE: Renouncing ownership will leave the contract without an owner, thereby removing any functionality that is only available to the owner."
      },
      "safeTransferFrom(address,address,uint256)": {
        "details": "See {IERC721-safeTransferFrom}."
      },
      "safeTransferFrom(address,address,uint256,bytes)": {
        "details": "See {IERC721-safeTransferFrom}."
      },
      "setApprovalForAll(address,bool)": {
        "details": "See {IERC721-setApprovalForAll}."
      },
      "supportsInterface(bytes4)": {
        "details": "See {IERC165-supportsInterface}."
      },
      "symbol()": {
        "details": "See {IERC721Metadata-symbol}."
      },
      "tokenURI(uint256)": {
        "details": "See {IERC721Metadata-tokenURI}."
      },
      "transferFrom(address,address,uint256)": {
        "details": "See {IERC721-transferFrom}."
      },
      "transferOwnership(address)": {
        "details": "Transfers ownership of the contract to a new account (`newOwner`). Can only be called by the current owner."
      }
    },
    "version": 1
  },
  "userdoc": {
    "kind": "user",
    "methods": {},
    "version": 1
  }
}