{
  "contractName": "ZombieFactory",
  "abi": [
    {
      "anonymous": false,
      "inputs": [
        {
          "indexed": false,
          "internalType": "uint256",
          "name": "zombieId",
          "type": "uint256"
        },
        {
          "indexed": false,
          "internalType": "string",
          "name": "name",
          "type": "string"
        },
        {
          "indexed": false,
          "internalType": "uint256",
          "name": "dna",
          "type": "uint256"
        }
      ],
      "name": "NewZombie",
      "type": "event"
    },
    {
      "anonymous": false,
      "inputs": [
        {
          "indexed": true,
          "internalType": "address",
          "name": "previousOwner",
          "type": "address"
        },
        {
          "indexed": true,
          "internalType": "address",
          "name": "newOwner",
          "type": "address"
        }
      ],
      "name": "OwnershipTransferred",
      "type": "event"
    },
    {
      "inputs": [],
      "name": "owner",
      "outputs": [
        {
          "internalType": "address",
          "name": "",
          "type": "address"
        }
      ],
      "stateMutability": "view",
      "type": "function",
      "constant": true
    },
    {
      "inputs": [],
      "name": "renounceOwnership",
      "outputs": [],
      "stateMutability": "nonpayable",
      "type": "function"
    },
    {
      "inputs": [
        {
          "internalType": "address",
          "name": "newOwner",
          "type": "address"
        }
      ],
      "name": "transferOwnership",
      "outputs": [],
      "stateMutability": "nonpayable",
      "type": "function"
    },
    {
      "inputs": [
        {
          "internalType": "uint256",
          "name": "",
          "type": "uint256"
        }
      ],
      "name": "zombieToOwner",
      "outputs": [
        {
          "internalType": "address",
          "name": "",
          "type": "address"
        }
      ],
      "stateMutability": "view",
      "type": "function",
      "constant": true
    },
    {
      "inputs": [
        {
          "internalType": "uint256",
          "name": "",
          "type": "uint256"
        }
      ],
      "name": "zombies",
      "outputs": [
        {
          "internalType": "string",
          "name": "name",
          "type": "string"
        },
        {
          "internalType": "uint256",
          "name": "dna",
          "type": "uint256"
        },
        {
          "internalType": "uint32",
          "name": "level",
          "type": "uint32"
        },
        {
          "internalType": "uint32",
          "name": "readyTime",
          "type": "uint32"
        },
        {
          "internalType": "uint16",
          "name": "winCount",
          "type": "uint16"
        },
        {
          "internalType": "uint16",
          "name": "lossCount",
          "type": "uint16"
        }
      ],
      "stateMutability": "view",
      "type": "function",
      "constant": true
    },
    {
      "inputs": [
        {
          "internalType": "string",
          "name": "_name",
          "type": "string"
        }
      ],
      "name": "createRandomZombie",
      "outputs": [],
      "stateMutability": "nonpayable",
      "type": "function"
    }
  ],
  "bytecode": "0x60806040526010600155600154600a6200001a91906200017f565b600255620151806003553480156200003157600080fd5b5062000052620000466200005860201b60201c565b6200006060201b60201c565b62000302565b600033905090565b60008060009054906101000a900473ffffffffffffffffffffffffffffffffffffffff169050816000806101000a81548173ffffffffffffffffffffffffffffffffffffffff021916908373ffffffffffffffffffffffffffffffffffffffff1602179055508173ffffffffffffffffffffffffffffffffffffffff168173ffffffffffffffffffffffffffffffffffffffff167f8be0079c531659141344cd1fd0a4f28419497f9722a3daafe3b4186f6b6457e060405160405180910390a35050565b6000808291508390505b600185111562000176578086048111156200014e576200014d620002c6565b5b60018516156200015e5780820291505b80810290506200016e85620002f5565b94506200012e565b94509492505050565b60006200018c82620002bc565b91506200019983620002bc565b9250620001c87fffffffffffffffffffffffffffffffffffffffffffffffffffffffffffffffff8484620001d0565b905092915050565b600082620001e25760019050620002b5565b81620001f25760009050620002b5565b81600181146200020b576002811462000216576200024c565b6001915050620002b5565b60ff8411156200022b576200022a620002c6565b5b8360020a915084821115620002455762000244620002c6565b5b50620002b5565b5060208310610133831016604e8410600b8410161715620002865782820a90508381111562000280576200027f620002c6565b5b620002b5565b62000295848484600162000124565b92509050818404811115620002af57620002ae620002c6565b5b81810290505b9392505050565b6000819050919050565b7f4e487b7100000000000000000000000000000000000000000000000000000000600052601160045260246000fd5b60008160011c9050919050565b610f8280620003126000396000f3fe608060405234801561001057600080fd5b50600436106100625760003560e01c80632052465e14610067578063528b7b8f1461009c578063715018a6146100cc5780637bff0a01146100d65780638da5cb5b146100f2578063f2fde38b14610110575b600080fd5b610081600480360381019061007c9190610967565b61012c565b60405161009396959493929190610a6a565b60405180910390f35b6100b660048036038101906100b19190610967565b61023c565b6040516100c39190610a4f565b60405180910390f35b6100d461026f565b005b6100f060048036038101906100eb919061091e565b6102f7565b005b6100fa610378565b6040516101079190610a4f565b60405180910390f35b61012a600480360381019061012591906108f1565b6103a1565b005b6004818154811061013c57600080fd5b906000526020600020906003020160009150905080600001805461015f90610ce8565b80601f016020809104026020016040519081016040528092919081815260200182805461018b90610ce8565b80156101d85780601f106101ad576101008083540402835291602001916101d8565b820191906000526020600020905b8154815290600101906020018083116101bb57829003601f168201915b5050505050908060010154908060020160009054906101000a900463ffffffff16908060020160049054906101000a900463ffffffff16908060020160089054906101000a900461ffff169080600201600a9054906101000a900461ffff16905086565b60056020528060005260406000206000915054906101000a900473ffffffffffffffffffffffffffffffffffffffff1681565b610277610499565b73ffffffffffffffffffffffffffffffffffffffff16610295610378565b73ffffffffffffffffffffffffffffffffffffffff16146102eb576040517f08c379a00000000000000000000000000000000000000000000000000000000081526004016102e290610af2565b60405180910390fd5b6102f560006104a1565b565b6000600660003373ffffffffffffffffffffffffffffffffffffffff1673ffffffffffffffffffffffffffffffffffffffff168152602001908152602001600020541461034357600080fd5b600061034e82610565565b905060648161035d9190610d94565b816103689190610c18565b9050610374828261058b565b5050565b60008060009054906101000a900473ffffffffffffffffffffffffffffffffffffffff16905090565b6103a9610499565b73ffffffffffffffffffffffffffffffffffffffff166103c7610378565b73ffffffffffffffffffffffffffffffffffffffff161461041d576040517f08c379a000000000000000000000000000000000000000000000000000000000815260040161041490610af2565b60405180910390fd5b600073ffffffffffffffffffffffffffffffffffffffff168173ffffffffffffffffffffffffffffffffffffffff16141561048d576040517f08c379a000000000000000000000000000000000000000000000000000000000815260040161048490610ad2565b60405180910390fd5b610496816104a1565b50565b600033905090565b60008060009054906101000a900473ffffffffffffffffffffffffffffffffffffffff169050816000806101000a81548173ffffffffffffffffffffffffffffffffffffffff021916908373ffffffffffffffffffffffffffffffffffffffff1602179055508173ffffffffffffffffffffffffffffffffffffffff168173ffffffffffffffffffffffffffffffffffffffff167f8be0079c531659141344cd1fd0a4f28419497f9722a3daafe3b4186f6b6457e060405160405180910390a35050565b600080828051906020012060001c9050600254816105839190610d94565b915050919050565b60046040518060c00160405280848152602001838152602001600163ffffffff168152602001600354426105bf9190610bc2565b63ffffffff168152602001600061ffff168152602001600061ffff16815250908060018154018082558091505060019003906000526020600020906003020160009091909190915060008201518160000190805190602001906106239291906107b4565b506020820151816001015560408201518160020160006101000a81548163ffffffff021916908363ffffffff16021790555060608201518160020160046101000a81548163ffffffff021916908363ffffffff16021790555060808201518160020160086101000a81548161ffff021916908361ffff16021790555060a082015181600201600a6101000a81548161ffff021916908361ffff16021790555050503360056000600480549050815260200190815260200160002060006101000a81548173ffffffffffffffffffffffffffffffffffffffff021916908373ffffffffffffffffffffffffffffffffffffffff160217905550600660003373ffffffffffffffffffffffffffffffffffffffff1673ffffffffffffffffffffffffffffffffffffffff168152602001908152602001600020600081548092919061076b90610d4b565b91905055507f88f026aacbbecc90c18411df4b1185fd8d9be2470f1962f192bf84a27d0704b760048054905083836040516107a893929190610b12565b60405180910390a15050565b8280546107c090610ce8565b90600052602060002090601f0160209004810192826107e25760008555610829565b82601f106107fb57805160ff1916838001178555610829565b82800160010185558215610829579182015b8281111561082857825182559160200191906001019061080d565b5b509050610836919061083a565b5090565b5b8082111561085357600081600090555060010161083b565b5090565b600061086a61086584610b75565b610b50565b90508281526020810184848401111561088657610885610e86565b5b610891848285610ca6565b509392505050565b6000813590506108a881610f1e565b92915050565b600082601f8301126108c3576108c2610e81565b5b81356108d3848260208601610857565b91505092915050565b6000813590506108eb81610f35565b92915050565b60006020828403121561090757610906610e90565b5b600061091584828501610899565b91505092915050565b60006020828403121561093457610933610e90565b5b600082013567ffffffffffffffff81111561095257610951610e8b565b5b61095e848285016108ae565b91505092915050565b60006020828403121561097d5761097c610e90565b5b600061098b848285016108dc565b91505092915050565b61099d81610c4c565b82525050565b60006109ae82610ba6565b6109b88185610bb1565b93506109c8818560208601610cb5565b6109d181610e95565b840191505092915050565b60006109e9602683610bb1565b91506109f482610ea6565b604082019050919050565b6000610a0c602083610bb1565b9150610a1782610ef5565b602082019050919050565b610a2b81610c5e565b82525050565b610a3a81610c8c565b82525050565b610a4981610c96565b82525050565b6000602082019050610a646000830184610994565b92915050565b600060c0820190508181036000830152610a8481896109a3565b9050610a936020830188610a31565b610aa06040830187610a40565b610aad6060830186610a40565b610aba6080830185610a22565b610ac760a0830184610a22565b979650505050505050565b60006020820190508181036000830152610aeb816109dc565b9050919050565b60006020820190508181036000830152610b0b816109ff565b9050919050565b6000606082019050610b276000830186610a31565b8181036020830152610b3981856109a3565b9050610b486040830184610a31565b949350505050565b6000610b5a610b6b565b9050610b668282610d1a565b919050565b6000604051905090565b600067ffffffffffffffff821115610b9057610b8f610e52565b5b610b9982610e95565b9050602081019050919050565b600081519050919050565b600082825260208201905092915050565b6000610bcd82610c8c565b9150610bd883610c8c565b9250827fffffffffffffffffffffffffffffffffffffffffffffffffffffffffffffffff03821115610c0d57610c0c610dc5565b5b828201905092915050565b6000610c2382610c8c565b9150610c2e83610c8c565b925082821015610c4157610c40610dc5565b5b828203905092915050565b6000610c5782610c6c565b9050919050565b600061ffff82169050919050565b600073ffffffffffffffffffffffffffffffffffffffff82169050919050565b6000819050919050565b600063ffffffff82169050919050565b82818337600083830152505050565b60005b83811015610cd3578082015181840152602081019050610cb8565b83811115610ce2576000848401525b50505050565b60006002820490506001821680610d0057607f821691505b60208210811415610d1457610d13610e23565b5b50919050565b610d2382610e95565b810181811067ffffffffffffffff82111715610d4257610d41610e52565b5b80604052505050565b6000610d5682610c8c565b91507fffffffffffffffffffffffffffffffffffffffffffffffffffffffffffffffff821415610d8957610d88610dc5565b5b600182019050919050565b6000610d9f82610c8c565b9150610daa83610c8c565b925082610dba57610db9610df4565b5b828206905092915050565b7f4e487b7100000000000000000000000000000000000000000000000000000000600052601160045260246000fd5b7f4e487b7100000000000000000000000000000000000000000000000000000000600052601260045260246000fd5b7f4e487b7100000000000000000000000000000000000000000000000000000000600052602260045260246000fd5b7f4e487b7100000000000000000000000000000000000000000000000000000000600052604160045260246000fd5b600080fd5b600080fd5b600080fd5b600080fd5b6000601f19601f8301169050919050565b7f4f776e61626c653a206e6577206f776e657220697320746865207a65726f206160008201527f6464726573730000000000000000000000000000000000000000000000000000602082015250565b7f4f776e61626c653a2063616c6c6572206973206e6f7420746865206f776e6572600082015250565b610f2781610c4c565b8114610f3257600080fd5b50565b610f3e81610c8c565b8114610f4957600080fd5b5056fea264697066735822122051cbeeb0b89536015bd3006c91f918fc068fc159d7be0933c1c6a4b33265bcc764736f6c63430008050033",
  "immutableReferences": {},
  "source": "// SPDX-License-Identifier: MIT\r\npragma solidity >=0.6.19 <0.8.6;\r\nimport \"@openzeppelin/contracts/access/ownable.sol\";\r\nimport \"@openzeppelin/contracts/utils/math/safemath.sol\";\r\ncontract ZombieFactory is Ownable {\r\n  using SafeMath for uint256;\r\n  event NewZombie(uint zombieId, string name, uint dna);\r\n  uint dnaDigits = 16;\r\n  uint dnaModulus = 10 ** dnaDigits;\r\n  uint cooldownTime = 1 days;\r\n  struct Zombie {\r\n    string name;\r\n    uint dna;\r\n    uint32 level;\r\n    uint32 readyTime;\r\n    uint16 winCount;\r\n    uint16 lossCount;\r\n  }\r\n  Zombie[] public zombies;\r\n  mapping (uint => address) public zombieToOwner;\r\n  mapping (address => uint) ownerZombieCount;\r\n  function _createZombie(string memory _name, uint _dna) internal {\r\n    zombies.push(Zombie(_name, _dna, 1, uint32(block.timestamp + cooldownTime), 0, 0));\r\n    zombieToOwner[zombies.length] = msg.sender;\r\n    ownerZombieCount[msg.sender]++;\r\n    emit NewZombie(zombies.length, _name, _dna);\r\n  }\r\n  function _generateRandomDna(string memory _str) private view returns (uint) {\r\n    uint rand = uint(keccak256(bytes(_str)));\r\n    return rand % dnaModulus;\r\n  }\r\n  function createRandomZombie(string memory _name) public {\r\n    require(ownerZombieCount[msg.sender] == 0);\r\n    uint randDna = _generateRandomDna(_name);\r\n    randDna = randDna - randDna % 100;\r\n    _createZombie(_name, randDna);\r\n  }\r\n}\r\n\r\n",
  "sourcePath": "C:\\code\\cryptodapp\\contracts\\ZombieFactory.sol",
  "compiler": {
    "name": "solc",
    "version": "0.8.5+commit.a4f2e591.Emscripten.clang"
  },
  "schemaVersion": "3.4.1",
  "updatedAt": "2021-07-02T16:55:21.524Z",
  "networkType": "ethereum",
  "devdoc": {
    "kind": "dev",
    "methods": {
      "owner()": {
        "details": "Returns the address of the current owner."
      },
      "renounceOwnership()": {
        "details": "Leaves the contract without owner. It will not be possible to call `onlyOwner` functions anymore. Can only be called by the current owner. NOTE: Renouncing ownership will leave the contract without an owner, thereby removing any functionality that is only available to the owner."
      },
      "transferOwnership(address)": {
        "details": "Transfers ownership of the contract to a new account (`newOwner`). Can only be called by the current owner."
      }
    },
    "version": 1
  },
  "userdoc": {
    "kind": "user",
    "methods": {},
    "version": 1
  }
}